:100000000C94A5020C94ED170C94C6170C94CD0219
:100010000C94CD020C94CD020C94CD020C94CD0224
:100020000C94CD020C94CD020C94CD020C94CD0214
:100030000C94CD020C94CD020C94CD020C94CD0204
:100040000C947C170C94CD020C94CD020C94CD0230
:100050000C94CD020C94CD020C94CD020C94CD02E4
:100060000C9456180C94CD02D6215523A42B12249F
:100070008924F925592A1E274E295D29932B9F0390
:10008000AE03B103B403A203AB03A503A803B703F4
:10009000BA03EA03BA0689078C072F057C06DD053B
:1000A0004706FB0788082020202020202020202031
:1000B0002020202020200020202020202020202060
:1000C000202073746F703E00202021212120535482
:1000D00041525420212121002020202020202020B6
:1000E00020202073746F703E005A6174727A796DAB
:1000F000616A206175746F2021006F737461746E82
:100100006920706F6D6961723A006B6D2F68002015
:1001100020202020202020202020202020202000FF
:10012000202020202020202020202073746F703E6B
:10013000002021212120535441525420212121000B
:10014000202020202020202020202073746F703E4B
:10015000005A6174727A796D616A206175746F20DA
:1001600021006F737461746E6920706F6D696172C4
:100170003A002E202E202E202E202E202E202E2023
:100180002E20006B6173756A203E00757374617771
:1001900069656E6961203E00706F7A6F73743A0012
:1001A00070616C69776F3A00616B753A00637A61D0
:1001B00073206E6120312F346D696C693E00637A63
:1001C000617320646F203130306B6D2F683E006B9F
:1001D0006D20006C2F3130306B6D004F444F3A0072
:1001E000207A6C00316B6D3A00207A6C006B6F7373
:1001F0007A743A006B6D20006C2F3130306B6D00DB
:1002000073722E006B6D2F680073722E006C2F6856
:1002100020202020006C2F3130306B6D006B6D2F53
:100220006800676F647A2E202020207A61706973DD
:100230007A3E006D696E7574792020202064616CAF
:10024000656A3E0070727A65706C797720207A61F9
:100250007069733E0070727A65706C797720202027
:10026000207831303E00696D70756C7379202020E4
:100270007A617069733E00696D70756C73792020C6
:100280002078313030303E00696D70756C737920A4
:10029000202020783130303E00696D70756C7379A4
:1002A00020202020207831303E007A62696F726E03
:1002B000696B20207A617069733E007773706F6C90
:1002C000637A796E6E696B204F4B3E0063656E6199
:1002D0002070616C2E207A617069733E0063656ED8
:1002E000612070616C2E2020783130303E006365D3
:1002F0006E612070616C697761207831303E005604
:10030000416363752020202020207A617069733E4C
:1003100000646F74616E6B6F772E207A6170697301
:100320003E00696C65206C6974726F7720207831AB
:10033000303E00646F74616E6B6F77616E6965202B
:1003400020203E006B616C6962722E5641636375BA
:100350002020203E006B6F7069756A204F444F3E2D
:10036000547269703E006B6173756A205452495033
:1003700020202020203E0063656E612070616C6942
:100380007761202020203E007773706F6C637A794C
:100390006E6E696B2020203E00706F6A656D6E6F17
:1003A00073632062616B75203E00696D702E2F6B48
:1003B0006D20202020202020203E00777472797349
:1003C0006B697761637A202020203E007A6567613F
:1003D00072202020202075737461773E0000000099
:1003E0000023002600290004040404040404040279
:1003F00002020202020303030303030102040810C2
:10040000204080010204081020010204081020206E
:100410002020202020202020202077796A2E3E00D6
:10042000005EBCE2613FDD83C29C7E20A3FD1F41D4
:100430009DC3217FFCA2401E5F01E3BD3E6082DCC4
:10044000237D9FC1421CFEA0E1BF5D0380DE3C62B4
:10045000BEE0025CDF81633D7C22C09E1D43A1FFA4
:100460004618FAA427799BC584DA3866E5BB590794
:10047000DB856739BAE406581947A5FB7826C49A84
:10048000653BD987045AB8E6A7F91B45C6987A2474
:10049000F8A6441A99C7257B3A6486D85B05E7B964
:1004A0008CD2306EEDB3510F4E10F2AC2F7193CD54
:1004B000114FADF3702ECC92D38D6F31B2EC0E5044
:1004C000AFF1134DCE90722C6D33D18F0C52B0EE34
:1004D000326C8ED0530DEFB1F0AE4C1291CF2D7324
:1004E000CA947628ABF517490856B4EA6937D58B14
:1004F0005709EBB536688AD495CB2977F4AA481604
:10050000E9B7550B88D6346A2B7597C94A14F6A8F3
:10051000742AC896154BA9F7B6E80A54D7896B35E3
:1005200000000000240027002A0000000000250031
:1005300028002B000000000800020100000304074F
:100540000000000000000000222C11241FBECFEF8D
:10055000D8E0DEBFCDBF11E0A0E0B1E0EAECF1E60B
:1005600002C005900D92A439B107D9F723E0A4E9A0
:10057000B1E001C01D92AF32B207E1F712E0C5EA67
:10058000D2E004C02197FE010E94992FC43AD107FE
:10059000C9F70E949F1A0C94E3300C940000FC01F0
:1005A00090810180F281E02D892F809560FF12C03B
:1005B000F8942281822382838181892B8183A3E223
:1005C000B0E01197F1F78281982B9283789487EDB0
:1005D00090E011C0F8942281822382838181892B4B
:1005E0008183AFEFB0E01197F1F78281982B92836E
:1005F00078948FE090E00197F1F70895FC019081E5
:100600000180F281E02DF8948181292F20958223A9
:10061000818378948DE743E050E0815021F1DA0145
:100620001197F1F730813923C1F3F8948281822345
:1006300082838181892B81837894ABE7B7E011971E
:10064000F1F7F894818128232183A3E1B1E0119788
:10065000F1F78081982381E009F080E07894E3E667
:10066000F6E03197F1F708950C94AE2C0C949C2C85
:100670001092B4011092B5011092B6011092B70118
:100680001092B0011092B1011092B2011092B30118
:100690001092A8011092A9011092AA011092AB0128
:1006A0001092AC011092AD011092AE011092AF0108
:1006B0001092A3011092A2010C94D8112F923F9294
:1006C0004F925F926F927F928F929F92AF92BF9262
:1006D000CF92DF92EF92FF920F931F93CF93DF930E
:1006E000CDB7DEB72B970FB6F894DEBF0FBECDBFE8
:1006F000A8EE4A2EA3E05A2E612C712C19E00E941C
:10070000190A0E94541360E080E00E9484098091DD
:100710002B028F3F11F410932B0280912B028A3011
:1007200010F010922B02E0912B028E2F90E08A3075
:10073000910520F5FC01E15CFF4F0C94992F8CECA6
:1007400093E01AC08BEB93E017C08AEA93E014C0E1
:1007500089E993E011C088E893E00EC087E793E051
:100760000BC086E693E008C085E593E005C084E40D
:1007700093E002C083E393E00E94F80910929E0187
:1007800080919E01811105C00E94AF0F80939E0150
:10079000F7CF843009F418C5813021F480912B0201
:1007A0008F5F05C0823031F480912B02815080939D
:1007B0002B02A5CF833009F0A2CF0E94190AE09145
:1007C0002B02F0E0EA30F10508F099CFE75BFF4F2C
:1007D0000C94992F83E392E00E94F8090E9454132D
:1007E0000E945D0B80912E028A3020F480E891E017
:1007F0000E940F0980912E020E94F1098EE791E07C
:100800000E940F0980912D028A3020F480E891E047
:100810000E940F0980912D020E94F10961E083E09E
:100820000E9484098091B602982F91609093B6023D
:1008300089600E9473091CE310929E0180919E01C1
:10084000811105C00E94AF0F80939E01F7CF8130C8
:10085000F1F480912D028F5F8C3318F480932D0278
:1008600002C010922D0261E083E00E948409809111
:100870002D028A3020F480E891E00E940F098091D7
:100880002D020E94F10961E083E00E9484098091B9
:100890009E018230F9F480912D02811102C01093E3
:1008A0002D0280912D02815080932D0261E083E022
:1008B0000E94840980912D028A3020F480E891E022
:1008C0000E940F0980912D020E94F10961E083E0EE
:1008D0000E94840980919E01843009F4B7C083305E
:1008E00009F0AACF60E080E00E94840982E292E0F1
:1008F0000E94F80961E081E00E94840918E11092E9
:100900009E0180919E01811105C00E94AF0F8093CE
:100910009E01F7CF8130F1F480912E028F5F8831F4
:1009200018F480932E0202C010922E0261E080E043
:100930000E94840980912E028A3020F480E891E0A0
:100940000E940F0980912E020E94F10961E081E06E
:100950000E94840980919E018230F9F480912E02D8
:10096000811102C010932E0280912E02815080933B
:100970002E0261E080E00E94840980912E028A307C
:1009800020F480E891E00E940F0980912E020E94DD
:10099000F10961E081E00E94840980919E01843028
:1009A00009F454C0833009F0AACF70912C026091F1
:1009B0002D0250912E0230912F0220913002809111
:1009C00031029091320240913302803DA7E09A07B4
:1009D0001CF0805D00E802C08C5600E079836A83D9
:1009E0005B834C833D832E838F8381E080938002E1
:1009F00088E68093A202109281021092A30280E006
:100A000090E00E946E099E012F5F3F4F790110E038
:100A1000FAE0DF2EF70180816D2D0E94652F30E115
:100A2000839F900D11249083153019F48E81800FCF
:100A30008E834FEFE41AF40A608184EA92E00E9408
:100A40004F161F5F173031F70E9411098091B602CF
:100A50008E7F8093B60288600E9473094FCE2090EB
:100A6000BB0185E592E00E94F809332433940E948B
:100A700054138091BB010E94F1094091BB01809108
:100A8000BA01A090CA01B090CB01C090CC01D09027
:100A9000CD01E090CE01F090CF010091D0011091F6
:100AA000D101489FA0011124952F990F990B9A010C
:100AB000492F592F692F792F892F0E94A62FA12CFA
:100AC000B12CEFE0CE2ED12CE12CF12C00E010E087
:100AD0000E942C3049015A0155E0850E911CA11C41
:100AE000B11CC501B401A30192010E94E62C690169
:100AF0007A0144275527A8EEB3E00E94DB2CA5011C
:100B00009401261B370B480B590BCA01B9012AE087
:100B100030E040E050E00E94E62C890188E791E057
:100B2000288739874A875B870E940F09C6010E9480
:100B3000CA0A83E791E00E940F09288539850A30A7
:100B4000110530F480E891E00E940F09398528856D
:100B5000C9010E94CA0A82E891E00E940F0910921E
:100B60009E0180919E01811105C00E94AF0F80936C
:100B70009E01F7CF843019F42092BB01BFCD8330A2
:100B800059F40E94190A31E0331210C384E492E050
:100B90000E94F8098AE0382E80919E01813021F46C
:100BA0008091BB01830D06C0823009F060CF809137
:100BB000BB0183198093BB015ACFE090D601F0901E
:100BC000D70189E992E00E94F80901E010E00E9453
:100BD00054138091D6019091D7010E94CA0A1092B5
:100BE0009E0180919E01811105C00E94AF0F8093EC
:100BF0009E01F7CF843029F4F092D701E092D6011C
:100C00007DCD833059F50E94190A0130110539F460
:100C100088E892E00E94F8090AE010E01FC00A305C
:100C2000110539F487E792E00E94F80904E610E024
:100C300015C00436110539F486E692E00E94F809E1
:100C400008EE13E00BC0083E43E0140739F460914E
:100C5000D6017091D70181E090E03FC180919E0163
:100C6000813039F48091D6019091D701800F911F86
:100C700009C0823009F0ABCF8091D6019091D701A5
:100C8000801B910B9093D7018093D601A0CF109138
:100C9000A1018AEA92E00E94F8090E94541380910F
:100CA000A1010E94F10989E891E00E940F091092C8
:100CB0009E0180919E01811105C00E94AF0F80931B
:100CC0009E01F7CF843019F41093A10117CD833022
:100CD00029F46091A10187E090E06CC2813021F499
:100CE0008091A1018F5F05C08230B9F68091A1018A
:100CF00081508093A101D1CF1091BA018BEB92E08A
:100D00000E94F80909E00E9454138091BA010E94E0
:100D1000F10910929E0180919E01811105C00E94EF
:100D2000AF0F80939E01F7CF843019F41093BA016E
:100D3000E5CC833029F46091BA0188E090E03AC2B2
:100D4000813051F48091BA01883010F01092BA01CC
:100D50008091BA018F5F0BC08230A9F68091BA01F1
:100D6000823010F40093BA018091BA0181508093CF
:100D7000BA01C9CF2090B8013090B9018EEE92E04F
:100D80000E94F80901E010E00E945413C090B801DD
:100D9000D090B901E12CF12CEFEF21E030E040E000
:100DA00050E0AAE0B0E00E94DB2C9B01AC01E150D6
:100DB000C1F7A5E0B0E00E94DB2C6C0D7D1D8E1DFF
:100DC0009F1D24E630E040E050E00E94E62CC9017F
:100DD0000E94CA0A83E791E00E940F09C090B801FF
:100DE000D090B901E12CF12CEFEF21E030E040E0B0
:100DF00050E0AAE0B0E00E94DB2C9B01AC01E15086
:100E0000C1F7A5E0B0E00E94DB2C4B015C018C0C2B
:100E10009D1CAE1CBF1CEFEF21E030E040E050E035
:100E2000AAE0B0E00E94DB2C9B01AC01E150C1F7CD
:100E3000A5E0B0E00E94DB2C6C0D7D1D8E1D9F1D7A
:100E400024E630E040E050E00E94E62C442755279D
:100E5000A4E6B0E00E94DB2C861A970AA80AB90A19
:100E600059E0581520F080E891E00E940F09882D84
:100E70000E94F10910929E0180919E01811105C08E
:100E80000E94AF0F80939E01F7CF843029F43092F7
:100E9000B9012092B80132CC833011F50E94190AB1
:100EA0000130110539F48DED92E00E94F8090AE055
:100EB00010E016C00A30110539F48CEC92E00E9463
:100EC000F80904E610E00CC00436110549F46091FD
:100ED000B8017091B90189E290E00E94BB100ECC7C
:100EE00080919E01813039F48091B8019091B901CF
:100EF000800F911F09C0823009F046CF8091B80160
:100F00009091B901801B910B9093B9018093B80126
:100F10003BCF0E947E12F2CB4091DC015091DD016B
:100F20006091DE017091DF018091B4019091B50173
:100F3000A091B601B091B701840F951FA61FB71FEE
:100F40008093DC019093DD01A093DE01B093DF017B
:100F50004091D8015091D9016091DA017091DB0183
:100F60008091B0019091B101A091B201B091B30113
:100F7000840F951FA61FB71F8093D8019093D901A6
:100F8000A093DA01B093DB012091CA013091CB012B
:100F90004091CC015091CD016091CE017091CF0173
:100FA0008091D0019091D101A090A801B090A901A9
:100FB000C090AA01D090AB01E090AC01F090AD01DF
:100FC0000091AE011091AF010E94C0302093CA0180
:100FD0003093CB014093CC015093CD016093CE016F
:100FE0007093CF018093D0019093D1010E942B1276
:100FF0000E94380383CB00919401109195018FEFEB
:1010000092E00E94F8090E9454130E94840F0E94EB
:101010005E0F6091A6017091A701CB01A0E0B0E046
:10102000BC01CD016B5F7F4F8F4F9F4FA30192019A
:101030000E94E62CC9010E94CA0A83E791E00E943F
:101040000F096091A6017091A701CB01A0E0B0E06B
:101050006C017D01E5E0CE0ED11CE11CF11CC70145
:10106000B601A30192010E94E62CA8EEB3E00E9413
:10107000DB2CA7019601261B370B480B590BCA0125
:10108000B9012AE030E040E050E00E94E62CC901BE
:101090000E94CA0A80E991E00E940F0982E991E06A
:1010A0000E940F0980919401909195010E94CA0AB3
:1010B00010929E0180919E01811105C00E94AF0F88
:1010C00080939E01F7CF843029F41093950100930B
:1010D000940114CB833039F460919401709195019F
:1010E00082E390E0FACE813031F4809194019091C6
:1010F0009501059608C0823009F085CF8091940152
:1011000090919501059790939501809394017BCFE1
:10111000E090A201F090A30182E293E00E94F8091E
:1011200011E00E9454138091A2019091A3010E94AA
:10113000CA0A88E791E00E940F0982E891E00E94C4
:101140000F0910929E0180919E01811105C00E949D
:10115000AF0F80939E01F7CF843029F4F092A30162
:10116000E092A201CBCA833049F40E94190A1130DF
:1011700021F581E193E00E94F8091AE080919E0137
:10118000813039F48091A2019091A301810F911DCA
:1011900008C0823031F68091A2019091A301811B99
:1011A00091099093A3018093A201BBCF6091BB01F1
:1011B00080E090E00E943403A1CA6091A201709186
:1011C000A30184E390E089CE2B960FB6F894DEBF9E
:1011D0000FBECDBFDF91CF911F910F91FF90EF9088
:1011E000DF90CF90BF90AF909F908F907F906F9047
:1011F0005F904F903F902F900895009769F0FC0109
:1012000001900020E9F73197AF01481B590BBC0151
:1012100080EB92E00C94471580E090E008950C94E8
:10122000FD082091A3029091A202213208F04AC049
:1012300080917F028111FCCF32E030937F0231E058
:1012400030937E023FEF30937D0210927C02209318
:101250007B02A2E8B2E04BE552E0FA013E2F341BDC
:10126000321718F43D913193F9CF10925A02209120
:101270005A02990F922B90935A02909159029130F1
:1012800061F41092590290915A029093BB00909190
:10129000BC0093FDF8CF95EC01C095EE9093BC0097
:1012A00090917F029230E1F390917D029F3F79F01F
:1012B00080917D02803241F080917D02803331F057
:1012C00084E005C081E003C082E001C083E01092A9
:1012D00081021092A302109280020895682F84EA7E
:1012E00092E00C944F16CF93C82F682F607F80EB4D
:1012F00092E00E94261880E1C89FB001112480EB83
:1013000092E0CF910C942618CF93DF93CDB7DEB740
:1013100028970FB6F894DEBF0FBECDBF98E0E7E484
:10132000F1E0DE01119601900D929A95E1F790910E
:10133000B802961710F46FEF690FFE013196E60FB1
:10134000F11DE60FF11D9081890F806828960FB678
:10135000F894DEBF0FBECDBFDF91CF910C9473091F
:101360008F929F92AF92BF920F931F93CF93DF9371
:10137000CDB7DEB7A1970FB6F894DEBF0FBECDBFD5
:1013800019A2423008F44AE08E010F5D1F4F842EEF
:10139000912CA12CB12CA50194010E94E62CE62FE2
:1013A000B901CA0101501109EA3014F4E05D01C02D
:1013B000E95CD801EC93232B242B252B61F7C80182
:1013C0000E94FD08A1960FB6F894DEBF0FBECDBFF8
:1013D000DF91CF911F910F91BF90AF909F908F9011
:1013E0000895682F70E080E090E04AE00C94B00926
:1013F0000F931F93CF93DF938C01C0E0D0E0F801EF
:10140000EC0FFD1F6491662371F0E091B002F09142
:10141000B1020190F081E02D80EB92E00995892BDB
:1014200011F02196ECCFCE01DF91CF911F910F915A
:10143000089581E00E9473098BE39FE10197F1F722
:101440008091B902882321F060E080E00C94840947
:101450000895EF92FF920F931F93CF93DF9300D0E5
:10146000CDB7DEB7877028E0829FC0011124806469
:1014700069837A830E9473096981E62E7A81F72E47
:101480008701085F1F4FF70161917F0180EB92E0B8
:101490000E943F18E016F106B1F70F900F90DF9110
:1014A000CF911F910F91FF90EF90089510925802E5
:1014B00010925702109281021092A30210927F02A2
:1014C00081E080937E021092590261E082E10E94E5
:1014D000AD1661E083E10E94AD16E9EBF0E080819A
:1014E0008E7F808380818D7F808388E48093B800A5
:1014F00085E48093BC000895E091B002F091B102C0
:101500000190F081E02D682F80EB92E00994CF9359
:10151000DF93CDB7DEB728970FB6F894DEBF0FBEC6
:10152000CDBF48E050E0BC01CE0101960E948C2C5A
:1015300089818F3FA9F48A818F3F91F48B818F3FFE
:1015400079F48C818F3F61F48D818F3F49F48E81D6
:101550008F3F31F48F818F3F19F488858F3F49F099
:1015600029813A814B815C816D817E818F81988553
:1015700008C020E030E040E050E060E070E080E053
:1015800090E028960FB6F894DEBF0FBECDBFDF9176
:10159000CF910895BC0180E090E04AE00C94B0093E
:1015A000CF92DF92EF92FF92CF93DF936C01990F6E
:1015B000EE08FF08F7FE17C08DE20E947C0AEC01DE
:1015C00066277727CB016C197D098E099F094AE0B0
:1015D0000E94B0098C0F9D1FDF91CF91FF90EF907B
:1015E000DF90CF9008954AE0C701B601DF91CF9117
:1015F000FF90EF90DF90CF900C94B00981E0809342
:10160000800288E68093A202109281021092A302C7
:101610006EE084EA92E00E944F1664E084EA92E071
:101620000E944F160C94110990917F029111FCCFEA
:10163000813208F080E291E090937F0290937E02E5
:101640002FEF20937D0210927C02280F20937B02C3
:1016500090935A0290915A02906D90935A029091F1
:101660005902913061F41092590290915A0290936C
:10167000BB009091BC0093FDF8CF95EC01C095EEB6
:101680009093BC0090917F029130E1F390917C02A5
:10169000981710F480917C02ABE5B2E027E332E0CA
:1016A000F9019E2F921B981718F49D919193F9CFF1
:1016B00010925802809357020895EF92FF920F9371
:1016C0001F93CF93DF93CDB7DEB727970FB6F8946C
:1016D000DEBF0FBECDBF81E08093800288E680939D
:1016E000A202109281021092A30280E090E00E9478
:1016F0006E090E94110987E090E00E94140BCE0150
:1017000001967C0100E010E084EA92E00E9403165A
:10171000982F9F70153079F484FB222720F9220F2F
:10172000322F330F330F230F920F9E83082F001F8A
:101730000027001F08C082958F70EAE08E9F900DF1
:101740001124F70190831F5FFFEFEF1AFF0A173094
:10175000D9F62F81822F90E0013019F48053984FF1
:1017600002C08459984F398130932C023A813093CA
:101770002D023B8130932E023D8130932F023E811A
:101780003093300290933202809331028C818093A7
:1017900033022093360227960FB6F894DEBF0FBEB1
:1017A000CDBFDF91CF911F910F91FF90EF900895E2
:1017B0008F929F92AF92BF92CF92DF92EF92FF9261
:1017C000CF93DF938091C3029091C4020E94FE02E6
:1017D00040E06CEC8091C3029091C4020E94911988
:1017E0004091BD0264E48091C3029091C4020E94C2
:1017F00091198091BF02882309F445C0E091BE028F
:10180000E950E33040F4F0E0EE0FFF1FE15BFE4FE4
:10181000C081D18102C0CEEED2E08091C002882387
:1018200011F18091BD0281111EC00E9470174B0101
:101830005C016E01DD0FEE08FF088091C3029091FC
:10184000C4020E94001A8130F1F00E947017DC017E
:10185000CB018C199D09AE09BF0988159905AA0508
:10186000BB0558F310C0BE01DD0F880B990BDF914B
:10187000CF91FF90EF90DF90CF90BF90AF909F906F
:101880008F900C943617DF91CF91FF90EF90DF90FF
:10189000CF90BF90AF909F908F900895AF92BF92DE
:1018A000CF92DF92EF92FF920F931F93CF93DF932C
:1018B0001F92CDB7DEB75C01D62EE72EFC018585E1
:1018C000811105C0C5010E94FE02811106C0F5010B
:1018D00013861586148680E065C040E060EFC50180
:1018E0000E94911901E0F12CC12C11E0C5010E9468
:1018F000001A682FC50169830E94001A698161304E
:1019000019F48130B9F433C04F2D50E068131BC077
:10191000F5018385181730F4E40FF51F83818023C8
:1019200049F402C0181731F060E0193058F4F5019D
:10193000148708C0F501EF0DF11D8381802B83838F
:1019400061E009C0C12EF501E40FF51F9381802FDE
:10195000809589238383C5010E94CF021F5F000FFA
:1019600011F4F39401E0F7E0FF1508F0BFCF113454
:1019700008F4ADCFF501C386C11002C081E08587B0
:10198000F5018381882309F4A2CFD5011396ED2DAB
:10199000FE2D9501255F3F4F8D918193A217B307CF
:1019A000D9F781E00F90DF91CF911F910F91FF90B8
:1019B000EF90DF90CF90BF90AF900895AF92BF921D
:1019C000CF92DF92EF92FF920F931F93CF93DF930B
:1019D0008B01BC018091C3029091C4020E94D31973
:1019E00040E06EEB8091C3029091C4020E94911975
:1019F000E801680189E0C80ED11CA090C302B09034
:101A0000C40288E0E82EF12C01E010E0C5010E943C
:101A1000001A8111102B000F81E0E81AF108B1F7CC
:101A20001993CC15DD0549F78091C3029091C4024A
:101A30000E94FE0291E0813009F090E0892FDF9151
:101A4000CF911F910F91FF90EF90DF90CF90BF90BB
:101A5000AF9008950F931F93CF93DF93CDB7DEB769
:101A600029970FB6F894DEBF0FBECDBFFC012081D1
:101A7000203161F18C018091C3029091C4020E94D7
:101A8000FE02882309F1BE016F5F7F4FC8010E94EB
:101A9000DE0C8823C9F068E0CE0101960E9484190B
:101AA0009985891311C08D818F3361F020F48F31B6
:101AB00059F489E00CC08F3519F08F3739F004C024
:101AC0008BE005C08AE003C080E001C08CE029966D
:101AD0000FB6F894DEBF0FBECDBFDF91CF911F913F
:101AE0000F9108950F931F93CF93DF938C01D62FFF
:101AF000E091C302F091C402138615861486DF01BB
:101B00001B9633961E92AE17BF07E1F7C0E0B801EF
:101B10008091C3029091C4020E944E0C811102C0B8
:101B200080E010C0CD130AC067E0C8010E9484198C
:101B3000F8019781891302C081E004C0CF5FDC17F0
:101B400078F3E5CFDF91CF911F910F910895E99838
:101B500080EC95E1909304018093030108952F9206
:101B60003F924F925F926F927F928F929F92AF922D
:101B7000BF92CF92DF92EF92FF920F931F93CF937A
:101B8000DF9384E00E948416892B49F480919A01A6
:101B900090919B01019690939B0180939A01809173
:101BA0009C0190919D01892B09F061C18DE00E94FB
:101BB000841661E0892B09F060E08DE00E94AD168B
:101BC0008091840090918500909397018093960175
:101BD000109285001092840080919A0190919B014F
:101BE0009093A00180939F0180919601909197011D
:101BF000892B21F410929701109296012091960161
:101C0000309197018091D8019091D901A091DA018A
:101C1000B091DB01820F931FA11DB11D8093D801EC
:101C20009093D901A093DA01B093DB016091D801C0
:101C30007091D9018091DA019091DB01C091D601B8
:101C4000D091D70128EE33E040E050E00E94FF2F12
:101C50005E01C12CD12CE12CF12C00E010E00E949F
:101C60002C30C901DA018093BC019093BD01A0938F
:101C7000BE01B093BF01609196017091970180E021
:101C800090E028EE33E040E050E00E94FF2F0E94F9
:101C90002C30309399012093980120919801309134
:101CA000990144E2429FC001439F900D11246AE0D4
:101CB00070E00E94712F7093C5016093C401809100
:101CC0009A0190919B01892B39F080919A01909112
:101CD0009B01843B904628F110929B0110929A013F
:101CE0001092C1011092C0011092C3011092C20162
:101CF0008091C4019091C501059798F08091DC0115
:101D00009091DD01A091DE01B091DF010196A11D4E
:101D1000B11D8093DC019093DD01A093DE01B093AF
:101D2000DF0180919A0190919B01892B09F49FC05A
:101D300080909A0190909B016090CA017090CB01B5
:101D4000B091CC01A091CD01F091CE01E091CF01F5
:101D50000091D0011091D101940140E050E060E089
:101D600070E080E090E05301CB2EDA2EEF2EFE2EB5
:101D70000E94C0302093CA013093CB014093CC0124
:101D80005093CD016093CE017093CF018093D00129
:101D90009093D10160919A0170919B012091BB01B8
:101DA00080E090E030E040E050E00E94FF2F5901D9
:101DB0006A017B01E82F192F04E00E9489300E2F61
:101DC0000E94C930A090BA01B12CC12CD12CE12CB9
:101DD000F12C00E010E00E94A62F0CE00E94A4303D
:101DE0003093C1012093C001E0909601F0909701DB
:101DF0006091C0017091C10180E090E09E0140E0DF
:101E000050E00E94FF2F29013A014B01D82FC92F22
:101E1000B70180E090E024E230E040E050E00E9432
:101E2000FF2F59016A017B018C019201A301B401CA
:101E30008D2F9C2F0E942C303093C3012093C20120
:101E40008091DC019091DD01A091DE01B091DF0174
:101E50000196A11DB11D8093DC019093DD01A0933B
:101E6000DE01B093DF0110929B0110929A018091E4
:101E70009C0190919D01019690939D0180939C01FE
:101E800080919C0190919D018115904821F41092C0
:101E90009D0110929C01DF91CF911F910F91FF90B6
:101EA000EF90DF90CF90BF90AF909F908F907F90FA
:101EB0006F905F904F903F902F900895CF93DF9356
:101EC00083E08093000162E070E080E090E00E9497
:101ED00036178EE00E941917C0919401D091950198
:101EE0008EE00E9419179E01DC010E949F2F2FEFA8
:101EF00033E040E050E00E94BC2C3093A7012093D7
:101F0000A601DF91CF9108958EE480937C0062E07A
:101F100070E080E090E00E94361780917A00806443
:101F200080937A0080917A0086FDFCCF2091780022
:101F300030E03093A5012093A40180917900382BE3
:101F4000032E000C440B550B60E070E381E190E040
:101F50000E94BC2C3093A5012093A4010895CF9238
:101F6000DF92EF92FF920F931F93CF93DF930E9424
:101F700070176B017C0187E00E948416D1E0892BE9
:101F800009F0D0E088E00E948416C1E0892B09F0B6
:101F9000C0E0DD2329F08C2F90E001E010E01EC0AE
:101FA000CC2309F453C081E090E000E010E016C0BB
:101FB000892BB9F087E00E94841631E020E0892B5C
:101FC00009F030E0032F122F88E00E94841631E0E0
:101FD00020E0892B09F030E0832F922F012B41F371
:101FE000E9CF0E947017DC01CB018C199D09AE0965
:101FF000BF09883E23E09207A105B105C0F4C2974E
:10200000A105B10510F1DD2341F062E370E080E04D
:1020100090E00E94361781E01AC0CC23B1F062E351
:1020200070E080E090E00E94361782E010C062E32A
:1020300070E080E090E0CC2321F00E94361784E02D
:1020400006C00E94361783E002C002C080E090E024
:10205000DF91CF911F910F91FF90EF90DF90CF9084
:102060000895CF92DF92EF92FF920F931F93CF9339
:102070006B017C01CB010E943603182FC60101962B
:102080000E943603C82FC60102960E943603082F0D
:10209000C60103960E9436034C2F50E060E070E0CA
:1020A000762F652F542F4427410F511D611D711D3F
:1020B00010E020E030E0980111270027400F511F69
:1020C000621F731F90E0A0E0B0E0B82FAA27992705
:1020D00088278A019B01080F191F2A1F3B1FC9016E
:1020E000B801CF911F910F91FF90EF90DF90CF90AB
:1020F0000895CF92DF92EF92FF92CF93DF93EC019E
:102100006A017B01642F0E9434039927F7FC9A959A
:102110008F2D7E2D6D2DCE0101960E943403B701C7
:10212000992777FD9095892FCE0102960E9434035E
:102130006F2D772788279927CE010396DF91CF91BE
:10214000FF90EF90DF90CF900C9434031F93CF93C8
:10215000DF93EC010E943603182FCE0101960E94F6
:102160003603282F30E0922F8827810F911DDF91B1
:10217000CF911F9108950F931F93CF93DF931F92D9
:10218000CDB7DEB78C0179830E9434037981672F44
:10219000C80101960F90DF91CF911F910F910C9480
:1021A0003403FF920F931F93CF93DF9369E070E0A6
:1021B00080E090E00E9431106093DC017093DD01BB
:1021C0008093DE019093DF016DE070E080E090E0AD
:1021D0000E9431106093D8017093D9018093DA0185
:1021E0009093DB0181E190E00E94870A2093CA016D
:1021F0003093CB014093CC015093CD016093CE013D
:102200007093CF018093D0019093D10169E170E088
:1022100080E090E00E9431106093B4017093B501AA
:102220008093B6019093B7016DE170E080E090E09B
:102230000E9431106093B0017093B1018093B2019C
:102240009093B30181E290E00E94870AF22E032F5F
:10225000142FD52FC62FB72FF82FE92F2093A801C1
:102260003093A9014093AA015093AB016093AC0154
:102270007093AD018093AE019093AF014091DC016A
:102280005091DD016091DE017091DF014F3F5F4FA2
:102290006F4F7F4F41F41092DC011092DD011092DC
:1022A000DE011092DF014091D8015091D901609177
:1022B000DA017091DB014F3F5F4F6F4F7F4F41F469
:1022C0001092D8011092D9011092DA011092DB011C
:1022D0002091CA013091CB014091CC015091CD01A8
:1022E0006091CE017091CF018091D0019091D10188
:1022F000AFEF0E94D23081F41092CA011092CB014C
:102300001092CC011092CD011092CE011092CF010B
:102310001092D0011092D1014091B4015091B501B9
:102320006091B6017091B7014F3F5F4F6F4F7F4F84
:1023300041F41092B4011092B5011092B6011092BE
:10234000B7014091B0015091B1016091B20170911B
:10235000B3014F3F5F4F6F4F7F4F41F41092B00179
:102360001092B1011092B2011092B3012F2D302FB3
:10237000412F5D2F6C2F7B2F8F2F9E2FAFEF0E9451
:10238000D23081F41092A8011092A9011092AA01F2
:102390001092AB011092AC011092AD011092AE01FF
:1023A0001092AF01DF91CF911F910F91FF9008958F
:1023B000CF93DF93CDB7DEB728970FB6F894DEBF83
:1023C0000FBECDBF4091B4015091B5016091B601EF
:1023D0007091B70189E190E00E9479104091B001BD
:1023E0005091B1016091B2017091B3018DE190E023
:1023F0000E9479108091A80189838091A9018A8324
:102400008091AA018B838091AB018C838091AC0178
:102410008D838091AD018E838091AE018F838091F9
:10242000AF01888748E050E061E270E0CE0101969C
:102430000E94A42C6091A2017091A30184E390E01A
:102440000E94BB1028960FB6F894DEBF0FBECDBF1A
:10245000DF91CF910895CF93DF93CDB7DEB7289763
:102460000FB6F894DEBF0FBECDBF4091DC01509196
:10247000DD016091DE017091DF0189E090E00E9452
:1024800079104091D8015091D9016091DA01709191
:10249000DB018DE090E00E9479107091CA0160919B
:1024A000CB015091CC014091CD013091CE012091D2
:1024B000CF019091D0018091D10179836A835B83B0
:1024C0004C833D832E839F83888748E050E061E101
:1024D00070E0CE0101960E94A42C6091A20170913F
:1024E000A30184E390E00E94BB1028960FB6F894F5
:1024F000DEBF0FBECDBFDF91CF910895AF92BF92E7
:10250000CF92DF92EF92FF920F931F938091DC01A5
:102510009091DD01A091DE01B091DF014091B40105
:102520005091B5016091B6017091B701840F951F6C
:10253000A61FB71F8093B4019093B501A093B60175
:10254000B093B7018091D8019091D901A091DA019F
:10255000B091DB014091B0015091B1016091B201A5
:102560007091B301840F951FA61FB71F8093B00110
:102570009093B101A093B201B093B3012091CA012D
:102580003091CB014091CC015091CD016091CE01B1
:102590007091CF018091D0019091D101A090A801BC
:1025A000B090A901C090AA01D090AB01E090AC011D
:1025B000F090AD010091AE011091AF010E94C030CA
:1025C0002093A8013093A9014093AA015093AB0135
:1025D0006093AC017093AD018093AE019093AF0115
:1025E0000E94D8111092DC011092DD011092DE01E0
:1025F0001092DF011092D8011092D9011092DA01E5
:102600001092DB011092BC011092BD011092BE012C
:102610001092BF011092CA011092CB011092CC010E
:102620001092CD011092CE011092CF011092D001E4
:102630001092D1011092C9011092C8011092C701E5
:102640001092C6011092D5011092D4011092D301BC
:102650001092D20110929D0110929C0110929B0148
:1026600010929A0110929901109298011092C5014E
:102670001092C4011092C1011092C0011092C301C6
:102680001092C2011092970110929601109285004B
:10269000109284001F910F91FF90EF90DF90CF90E8
:1026A000BF90AF900C942B1261E080E00E948409EF
:1026B0008FE094E00E94F80961E080E00C948409C6
:1026C000CF93DF9381E08093B9020E94560A109263
:1026D000B5028091BB02823018F098E09093B50269
:1026E0008093B8028091B902882329F064EF71E0E9
:1026F00080E090E004C062E370E080E090E00E943F
:1027000036176091BC0280EB92E00E94141868EECC
:1027100073E080E090E00E94361760E380EB92E087
:102720000E942618CBE4D6E4CE010197F1F760E3CE
:1027300080EB92E00E9426182197F1F760E380EB8E
:1027400092E00E94261883E592E00197F1F760E29B
:1027500080EB92E00E9426188091B50280620E9470
:10276000730984E08093B6028CE00E9473090E9492
:10277000190A82E08093B70286E00E94730982E022
:102780000E9473098BE39FE10197F1F76FE371E01A
:1027900081E00E94290A67E371E082E00E94290A31
:1027A0006FE271E083E00E94290A67E271E084E051
:1027B0000E94290A6FE171E085E00E94290A67E121
:1027C00071E086E00E94290A6FE071E087E00E94D4
:1027D000290A67E071E088E00E94290ADF91CF9121
:1027E0000C94190ACF93C62F81111CC0633009F4D1
:1027F00032C160E08C2F0E94840962E080EB92E09D
:102800000E943F1868E080EB92E00E943F1861E070
:1028100080EB92E00E943F1861E08C2F0E948409B7
:1028200062E062C0813009F560E0C33071F08C2F46
:102830000E94840960E280EB92E00E943F1860E20F
:1028400080EB92E00E943F1803C085E00E9484095B
:1028500061E080EB92E00E943F1861E0C33009F034
:102860005FC085E00E94840968C0823019F560E08D
:102870008C2F0E94840965E080EB92E00E943F1853
:1028800063E080EB92E00E943F1861E080EB92E011
:102890000E943F1861E08C2F0E94840962E080EB67
:1028A00092E00E943F1866E080EB92E00E943F18A1
:1028B00066E044C08330F1F460E08C2F0E9484090C
:1028C00065E080EB92E00E943F1863E080EB92E0CD
:1028D0000E943F1861E080EB92E00E943F1861E0A7
:1028E0008C2F0E94840967E080EB92E00E943F18E1
:1028F00066E01FC0843039F560E08C2F0E948409A7
:1029000062E080EB92E00E943F1866E080EB92E08C
:102910000E943F1861E080EB92E00E943F1861E066
:102920008C2F0E94840960E280EB92E00E943F18A5
:1029300060E280EB92E00E943F1861E080EB92E061
:102940000E943F1888C0853081F460E08C2F0E947F
:10295000840962E080EB92E00E943F1863E080EB24
:1029600092E00E943F1864E05EC0863081F460E02F
:102970008C2F0E94840962E080EB92E00E943F1855
:1029800063E080EB92E00E943F1864E031C0873042
:10299000F1F460E08C2F0E94840962E080EB92E009
:1029A0000E943F1868E080EB92E00E943F1861E0CF
:1029B00080EB92E00E943F1861E08C2F0E94840916
:1029C00060E280EB92E00E943F1860E23AC08830FB
:1029D000C9F460E08C2F0E94840962E080EB92E0F1
:1029E0000E943F1863E080EB92E00E943F1861E094
:1029F00080EB92E00E943F1861E08C2F0E948409D6
:102A000062E01AC0893039F560E08C2F0E94840999
:102A100062E080EB92E00E943F1863E080EB92E07E
:102A20000E943F1861E080EB92E00E943F1861E055
:102A30008C2F0E94840967E080EB92E00E943F188F
:102A400066E080EB92E00E943F1861E080EB92E04C
:102A5000CF910C943F18CF9108950F931F93CF936C
:102A6000DF93D82F162F042F0E948409C0E0C017CF
:102A700031F0CF5F88E791E00E940F09F8CF612F16
:102A80008D2FDF91CF911F910F910C948409CF92DC
:102A9000DF92EF92FF920F931F93CF93DF936C011E
:102AA0007A018B01C0E0D0E0CE15DF0589F0D801B6
:102AB0006D918D01D601ED91FC910190F081E02D99
:102AC000C6010995892B11F47E0102C02196ECCF35
:102AD000C701DF91CF911F910F91FF90EF90DF9091
:102AE000CF900895833081F028F4813099F08230BE
:102AF000A1F008958730A9F08830B9F08430D1F47E
:102B0000809180008F7D03C0809180008F778093BB
:102B10008000089584B58F7702C084B58F7D84BD11
:102B200008958091B0008F7703C08091B0008F7DB1
:102B30008093B00008953FB7F89480912B03909153
:102B40002C03A0912D03B0912E0326B5A89B05C0A0
:102B50002F3F19F00196A11DB11D3FBFBA2FA92F1C
:102B6000982F8827820F911DA11DB11DBC01CD0199
:102B700042E0660F771F881F991F4A95D1F7089585
:102B8000089585ED8093BC008091BC0084FDFCCF4E
:102B900010927F02089540910103262F30E0240F08
:102BA000311D21323105DCF420917F022430C9F43B
:102BB000FC0180E090E0861758F4309101032191E8
:102BC000DC01A152BD4FA30FB11D2C930196F3CF91
:102BD00080910103680F6093010380E0089581E014
:102BE000089582E008950895E09158028091570277
:102BF000E81730F4F0E0E95CFD4F808190E0089543
:102C00008FEF9FEF08959091580280915702981787
:102C100050F4E92FF0E0E95CFD4F208130E09F5F48
:102C20009093580202C02FEF3FEFC90108958091A1
:102C3000570290E020915802821B91090895CF928B
:102C4000DF92EF92FF920F931F93CF93DF937C015C
:102C5000262F972F8A0180918002882391F0C62F1A
:102C6000D72F6E01C40ED51ECC15DD0571F069910C
:102C7000D701ED91FC910190F081E02DC7010995FC
:102C8000F3CF642F822F0E94CB15C801DF91CF9123
:102C90001F910F91FF90EF90DF90CF900895CF9309
:102CA000DF931F92CDB7DEB7698320918002222384
:102CB000D1F02091A302203240F021E030E0FC016D
:102CC0003383228380E090E015C080918102E82F59
:102CD000F0E0EE57FD4F998190838F5F80938102E2
:102CE0008093A30205C061E0CE0101960E94CB153E
:102CF00081E090E00F90DF91CF910895089580E0FA
:102D000090E008950E94DE30CF93DF93282F30E0CB
:102D1000F901EC5CFA4F8491F901E550FC4FD49134
:102D2000F901E951FC4FC491CC2391F081110E942B
:102D30007215EC2FF0E0EE0FFF1FE352FC4FA59150
:102D4000B491EC91ED2381E090E021F480E002C0A9
:102D500080E090E0DF91CF9108951F93CF93DF93B0
:102D6000282F30E0F901EC5CFA4F8491F901E5502D
:102D7000FC4FD491F901E951FC4FC491CC23C9F027
:102D8000162F81110E947215EC2FF0E0EE0FFF1F3D
:102D9000E65DFA4FA591B4918FB7F894111105C073
:102DA0009C91ED2FE095E92302C0EC91ED2BEC9383
:102DB0008FBFDF91CF911F910895CF93DF9390E064
:102DC000FC01E550FC4F2491FC01E951FC4F84913A
:102DD000882361F190E0880F991FFC01E05EFA4FB3
:102DE000C591D491FC01E65DFA4FA591B4916111B2
:102DF00009C09FB7F8948881209582238883EC913D
:102E00002E230BC0623061F49FB7F8943881822F73
:102E1000809583238883EC912E2B2C939FBF06C033
:102E20008FB7F894E8812E2B28838FBFDF91CF9145
:102E300008958E3008F08E5087702091000190E444
:102E4000299F90011124822B80937C0080917A002D
:102E5000806480937A0080917A0086FDFCCF809117
:102E600078002091790090E0922B08958F929F92A4
:102E7000AF92BF92CF92DF92EF92FF926B017C01F3
:102E80000E949B154B015C01C114D104E104F104C3
:102E9000F1F00E949B15DC01CB0188199909AA0960
:102EA000BB09883E9340A105B10570F321E0C21A29
:102EB000D108E108F10888EE880E83E0981EA11C75
:102EC000B11CC114D104E104F10419F7DDCFFF9066
:102ED000EF90DF90CF90BF90AF909F908F9008952C
:102EE0002FB7F894609127037091280380912903EC
:102EF00090912A032FBF08951F920F920FB60F9241
:102F000011242F933F938F939F93AF93BF938091FF
:102F1000270390912803A0912903B0912A033091AF
:102F2000260323E0230F2D3720F40196A11DB11DA8
:102F300005C026E8230F0296A11DB11D209326038C
:102F40008093270390932803A0932903B0932A0327
:102F500080912B0390912C03A0912D03B0912E030F
:102F60000196A11DB11D80932B0390932C03A09378
:102F70002D03B0932E03BF91AF919F918F913F91FD
:102F80002F910F900FBE0F901F9018951F920F92C8
:102F90000FB60F9211242F933F934F935F936F932C
:102FA0007F938F939F93AF93BF93EF93FF93E091A2
:102FB0000301F09104010995FF91EF91BF91AF9149
:102FC0009F918F917F916F915F914F913F912F9141
:102FD0000F900FBE0F901F9018951F920F920FB673
:102FE0000F9211242F933F934F935F936F937F938F
:102FF0008F939F93AF93BF93EF93FF93E091010162
:10300000F09102010995FF91EF91BF91AF919F91CE
:103010008F917F916F915F914F913F912F910F9081
:103020000FBE0F901F901895FC01848191E0909342
:1030300080028093A202109281021092A3028485E2
:10304000862B90E00E946E090C9411090F931F9338
:10305000CF938C01C62F0E9414186C2F6460C80196
:103060000E9414186C2F6B7FC8010E94141883EC07
:1030700090E00197F1F7CF911F910F9108950F9371
:103080001F93CF938C01C62F607F61600E9426182A
:1030900080E1C89FB00111246160C8010E94261818
:1030A00081E090E0CF911F910F9108951F920F92B0
:1030B0000FB60F9211242F933F934F935F936F930B
:1030C0007F938F939F93AF93BF93EF93FF938091E1
:1030D000B900887F803609F49CC068F5883209F40D
:1030E0005BC090F4803109F454C038F4882309F4AB
:1030F000F6C0883009F44DC0F6C0883109F44CC0E0
:10310000803209F45DC0EFC0803409F468C048F42F
:10311000803309F455C0883309F0E5C080937D02FF
:10312000D8C0803509F44FC0883509F45DC08834B3
:1031300009F0D9C0D6C0883909F4C7C0A8F48837C7
:1031400009F467C038F4883609F463C0803709F49D
:1031500060C0C9C0883809F4B8C0803909F45FC0BC
:10316000803809F0C0C05BC0803B09F486C038F4E9
:10317000803A09F466C0883A09F47FC0B4C0803C44
:1031800009F4A7C0883C09F4A4C0883B09F48AC0AC
:10319000AAC080915A0210C090917C0280917B025B
:1031A000981770F5E0917C0281E08E0F80937C028D
:1031B000F0E0E55AFD4F80818093BB0085EC86C02E
:1031C00080937D028EC0E0917C0281E08E0F80931F
:1031D0007C028091BB00F0E0E55AFD4F8083909126
:1031E0007C0280917B026EC0E0917C0281E08E0FB8
:1031F00080937C028091BB00F0E0E55AFD4F808314
:1032000080917E0281116DC081E08093590284EA31
:1032100061C083E080937F0210922503CFCF80911D
:103220002503803208F051C0E091250381E08E0F24
:10323000809325038091BB00F0E0EB5FFC4F80831F
:10324000BDCF85EC8093BC0010927F028091250356
:10325000803230F4E0912503F0E0EB5FFC4F108208
:103260006091250370E0E0910303F091040385E091
:1032700093E009951092250336C084E080937F0285
:103280001092020310920103E091FF02F0910003FB
:10329000099580910103811105C081E080930103AC
:1032A0001092DF02E091020381E08E0F809302030F
:1032B000F0E0E152FD4F80818093BB0090910203CA
:1032C00080910103981708F479CF85E88093BC00BA
:1032D0000AC085EC8093BC0010927F0204C010925B
:1032E0007D020E94C115FF91EF91BF91AF919F9117
:1032F0008F917F916F915F914F913F912F910F909F
:103300000FBE0F901F901895DC01E0E0615038F07F
:103310008D91E827F0E0E05EFB4FE491F7CF8E2F30
:103320000895CF92DF92EF92FF920F931F93CF9366
:10333000DF931F92CDB7DEB76C01E62E08E010E0F8
:10334000FF24F39461E08F2D8E2109F460E0C60123
:1033500049830E94CF02FF0C0150110949810115D8
:10336000110581F7411115C0F894D6011196ED9120
:10337000FC91129791818C9180958923818311967C
:10338000ED91FC91129792818C9180958923828393
:1033900078940F90DF91CF911F910F91FF90EF9054
:1033A000DF90CF900895CF92DF92EF92FF920F932C
:1033B0001F93CF93DF931F92CDB7DEB78C01F62E0C
:1033C00040E065E579830E949119CF2C7981D72E51
:1033D000760188E0E80EF11CF60161916F0140E092
:1033E000C8010E949119CE14DF04B1F70F90DF914C
:1033F000CF911F910F91FF90EF90DF90CF900895A4
:10340000FC0190810180F281E02DF8948181892B6B
:1034100081832281892F809528232283A7E0B0E031
:103420001197F1F7218182238183A3E2B0E0119704
:10343000F1F780817894EFECF0E03197F1F7982381
:1034400081E009F480E00895CF93DF93CDB7DEB734
:1034500061970FB6F894DEBF0FBECDBF682FCE01C7
:103460000A960E94720D811105C060E070E08EEF37
:1034700092EC5CC08091C3029091C4020E94FE0253
:10348000882309F450C0BE016F5F7F4FCE010A96BA
:103490000E94DE0C882309F446C068E0CE01019644
:1034A0000E948419998589133EC0698148E0649F10
:1034B000B00111248A81282F30E0322F2227330FC8
:1034C000330F330F262B372B8A858031C9F468855B
:1034D00070E08F81AB01481B5109CA019695982F66
:1034E0008827979587950E94852F60517109207FC5
:1034F00053E0220F331F5A95E1F7620F731F01C08B
:10350000B901613854EE75070CF4AFCF072E000CEB
:10351000880B990B0E94332E20E030E040E05CE302
:103520000E94E82E03C060E874EEEBCF61960FB600
:10353000F894DEBF0FBECDBFDF91CF910895CF933A
:10354000DF93CDB7DEB7AA970FB6F894DEBF0FBEF4
:10355000CDBF789484B5826084BD84B5816084BD1C
:1035600085B5826085BD85B5816085BD80916E0021
:10357000816080936E001092810080918100826052
:10358000809381008091810081608093810080918F
:1035900080008160809380008091B100846080937E
:1035A000B1008091B00081608093B00080917A007A
:1035B000846080937A0080917A00826080937A00A0
:1035C00080917A00816080937A0080917A0080688F
:1035D00080937A001092C10060E082E00E94DD16C4
:1035E00060E085E00E94DD1660E084E00E94DD1668
:1035F00062E087E00E94DD1662E088E00E94DD164E
:1036000060E083E00E94DD1661E089E00E94DD1643
:1036100061E08DE00E94DD1680E090E00E943603BC
:10362000182F8093BB0181E090E00E94A610909338
:10363000D7018093D60187E090E00E943603809303
:10364000A10188E090E00E9436038093BA0189E2EC
:1036500090E00E94A6109093B9018093B80182E394
:1036600090E00E94A610909395018093940184E3CA
:1036700090E00E94A6109093A3018093A2011F3FA7
:1036800041F484E88093BB0164E880E090E00E940C
:1036900034038091D6019091D701019661F488E8B6
:1036A00093E19093D7018093D60168E873E181E0BC
:1036B00090E00E94BB108091A1018F3F41F48CE308
:1036C0008093A1016CE387E090E00E943403809135
:1036D000BA018F3F41F482E08093BA0162E088E052
:1036E00090E00E9434038091B8019091B901019655
:1036F00061F482EC91E09093B9018093B80162EC9F
:1037000071E089E290E00E94BB1080919401909159
:103710009501019661F480E29EE490939501809377
:10372000940160E27EE482E390E00E94BB1080910D
:10373000A2019091A301019651F41092A30110925D
:10374000A20160E070E084E390E00E94BB100E9460
:10375000D11061E089E00E94AD166AEF70E080E070
:1037600090E00E9436170E94560A0E94FE0AE091DD
:10377000C302F091C402138615861486DF011B96DE
:1037800033961E92AE17BF07E1F71092C102109256
:10379000C20211E0BE016F5F7F4F8091C302909122
:1037A000C4020E944E0C882309F45FC067E0CE017A
:1037B00001960E94841998858913ECCF8091BD02EF
:1037C000811128C08091C3029091C4020E94FE0220
:1037D000BE016F5F7F4F8091C3029091C4020E942F
:1037E000D31940E064EB8091C3029091C4020E941F
:1037F00091198091C3029091C4020E94001A082F6F
:103800008091C3029091C4020E94FE02002311F431
:103810000C941E2C0091BE02CE0101960E942A0D2E
:10382000801718F48091BE0204C0CE0101960E9458
:103830002A0D8093BE028091C1028F5F8093C102E6
:103840008981883261F030F4803149F0823209F0A8
:10385000A1CF05C08B3319F0823409F09BCF809142
:10386000C2028F5F8093C20295CF1092BF020E9466
:10387000D80B0E9460131092800010928100109269
:103880006F00109285001092840080918100866004
:103890008093810014BC789483E0809300018FEAC8
:1038A0009DE09093020180930101809169008C7FDB
:1038B000826080936900E89A38EE432E33E0532EFD
:1038C000612C712C83E00E94841621E0892B09F081
:1038D00020E020932A022111B2C068E873E180E061
:1038E00090E00E94361783E00E94841621E0892B25
:1038F00009F020E020932A022111A1C00E942B127E
:103900000E94190AE89840EC55E150930201409357
:10391000010167EA7DE070930401609303018091E7
:103920006900837F80936900E99A60E089E00E94E2
:10393000AD1660E08DE00E94AD1683B7817F846094
:1039400083BF80917A008093E00110927A00809189
:1039500064008F6E80936400F89483B7816083BFA6
:1039600080E685BF80E485BF7894889583B78E7F95
:1039700083BF809164008071809364008091E00136
:1039800080937A0061E089E00E94AD166AEF70E0F2
:1039900080E090E00E9436170E94560A0E94FE0ABC
:1039A0000E94601381E090E090939D0180939C01C0
:1039B00010929B0110929A01109299011092980115
:1039C0001092C5011092C4011092C1011092C00161
:1039D0001092C3011092C2011092970110929601A9
:1039E00010928500109284000E94D1102091D8017D
:1039F0003091D9014091DA015091DB01A8EEB3E09A
:103A00000E94DB2C2091D6013091D70140E050E09C
:103A10000E94E62C2093BC013093BD014093BE016F
:103A20005093BF018FEA9DE09093020180930101C2
:103A3000809169008C7F826080936900E89A0E947F
:103A4000AF0F7C01181619060CF06FC38091290284
:103A500071E0E716F10431F48F5F8B3078F010924B
:103A600029020EC092E0E916F10451F4811103C05D
:103A70008BE0809329028091290281508093290252
:103A800080912902883009F030C3A4E0EA16F104DD
:103A900009F0AEC16EE270E080E090E00E9431106B
:103AA0006F3FBFEF7B078B079B0749F06093E101F6
:103AB0007093E2018093E3019093E40108C01092B7
:103AC000E1011092E2011092E3011092E401809171
:103AD000E1019091E201A091E301B091E401892B11
:103AE0008A2B8B2B09F459C00E94190A8AEF90E0A7
:103AF0000E94F80961E080E00E9484098091E10160
:103B00009091E201A091E301B091E401BC01CD01EB
:103B10006B5F7F4F8F4F9F4FA30192010E94E62C56
:103B2000C9010E94CA0A83E791E00E940F098091AF
:103B3000E1019091E201A091E301B091E4014C0117
:103B40005D01E5E08E0E911CA11CB11CC501B40104
:103B5000A30192010E94E62C44275527A8EEB3E06A
:103B60000E94DB2C95018401061B170B280B390BD7
:103B7000C901B8012AE030E040E050E00E94E62CA4
:103B8000C9010E94CA0A85E791E00E940F0968E80E
:103B900073E180E090E00E9436170E94190A1092AB
:103BA0009E018091C4019091C501892BA1F089EEFD
:103BB00090E00E94F80961E080E00E94840988EDAD
:103BC00090E00E94F80907C00E94AF0F80939E0109
:103BD000843009F48AC28091C4019091C501892B77
:103BE00099F70E94190A88EC90E00E94F80961E0B8
:103BF00080E00E94840987EB90E00E94F8098091A0
:103C0000C4019091C501892B39F40E94AF0F8093B4
:103C10009E018430A1F769C260E080E00E948409BF
:103C200086EA90E00E94F8090E94701769877A87F7
:103C30008B879C878090BC019090BD01A090BE01B5
:103C4000B090BF018091BC019091BD01A091BE01D7
:103C5000B091BF0188199909AA09BB09823991401D
:103C6000A105B10508F058C00E94701729853A8552
:103C70004B855C85261B370B480B590BCA01B901D4
:103C8000A30192010E94E62C20FF3EC060E080E08C
:103C90000E9484098091BC019091BD01A091BE0158
:103CA000B091BF01BC01CD01681979098A099B094E
:103CB0004AE00E94B00987E791E00E940F098091D5
:103CC000BC019091BD01A091BE01B091BF01BC01AA
:103CD000CD01681979098A099B090E94312E20E0DB
:103CE00030E049EC53E40E94892D20E030E048ECBC
:103CF00052E40E94E82E0E94FB2DCB010E94D00AC4
:103D00008AE791E00E940F090E94AF0F80939E0105
:103D1000843009F097CFE9C10E947017AB01BC0154
:103D2000A984BA84CB84DC844A195B096C097D09B7
:103D30004093E1015093E2016093E3017093E40149
:103D40008EE290E00E9479100E94190A8091E101B0
:103D50009091E201A091E301B091E401BC01CD0199
:103D60006B5F7F4F8F4F9F4FA30192010E94E62C04
:103D7000C9010E94CA0A83E791E00E940F0980915D
:103D8000E1019091E201A091E301B091E4014C01C5
:103D90005D0105E0800E911CA11CB11CC501B401A0
:103DA000A30192010E94E62C44275527A8EEB3E018
:103DB0000E94DB2CA5019401261B370B480B590BE5
:103DC000CA01B9012AE030E040E050E00E94E62C50
:103DD000C9010E94CA0A85E791E00E940F090E946A
:103DE00054130E94AF0F80939E018430D1F77DC1A0
:103DF00033E0E316F10409F078C16AE270E080E094
:103E000090E00E9431106F3F4FEF740784079407D2
:103E100049F06093E5017093E6018093E701909388
:103E2000E80108C01092E5011092E6011092E70146
:103E30001092E8018091E5019091E601A091E701DF
:103E4000B091E801892B8A2B8B2B09F459C00E9471
:103E5000190A82E691E00E94F80961E080E00E9480
:103E600084098091E5019091E601A091E701B0916C
:103E7000E801BC01CD016B5F7F4F8F4F9F4FA301C6
:103E800092010E94E62CC9010E94CA0A83E791E0D0
:103E90000E940F098091E5019091E601A091E70150
:103EA000B091E8014C015D0155E0850E911CA11C0B
:103EB000B11CC501B401A30192010E94E62C442764
:103EC0005527A8EEB3E00E94DB2C95018401061B68
:103ED000170B280B390BC901B8012AE030E040E08C
:103EE00050E00E94E62CC9010E94CA0A85E791E0D1
:103EF0000E940F0968E873E180E090E00E943617A5
:103F00000E94190A10929E018091C4019091C501EE
:103F1000892BA1F081E591E00E94F80961E080E041
:103F20000E94840980E491E00E94F80907C00E9481
:103F3000AF0F80939E01843009F4D7C08091C401F3
:103F40009091C501892B99F70E94190A81E391E0AC
:103F50000E94F80961E080E00E94840980E291E01B
:103F60000E94F8098091C4019091C501892B39F410
:103F70000E94AF0F80939E018430A1F7B6C00E94CB
:103F800070174B015C0160E080E00E9484098FE0C3
:103F900091E00E94F8098091C4019091C501843696
:103FA000910528F50E947017A5019401261B370B77
:103FB000480B590BCA01B901A30192010E94E62CDA
:103FC00020FF0EC060E080E00E9484098091C4015F
:103FD0009091C5010E94CA0A8AE091E00E94F80906
:103FE0000E94AF0F80939E018430A9F67EC00E948C
:103FF0007017AB01BC01481959096A097B09409344
:10400000E5015093E6016093E7017093E80149A749
:104010005AA76FA378A70E94190A49A55AA56FA1AC
:1040200078A58AE290E00E9479106091E501709194
:10403000E6018091E7019091E8014AE00E94B00911
:1040400061E080E00E9484098091E5019091E601A1
:10405000A091E701B091E801BC01CD016B5F7F4FFA
:104060008F4F9F4FA30192010E94E62CC9010E942D
:10407000CA0A83E791E00E940F098091E5019091BF
:10408000E601A091E701B091E8014C015D0135E046
:10409000830E911CA11CB11CC501B401A3019201A6
:1040A0000E94E62C44275527A8EEB3E00E94DB2CA3
:1040B00095018401061B170B280B390BC901B801A8
:1040C0002AE030E040E050E00E94E62CC9010E9466
:1040D000CA0A85E791E00E940F090E9454130E94CA
:1040E000AF0F80939E018430D1F7809129028A30EE
:1040F00091F414E0E116F10441F40E947E120E9452
:10410000380384E08093290206C023E0E216F1041C
:1041100011F40E945E030E94190A10922502109267
:10412000260210922702109228020E947017009116
:104130002502109126022091270230912802DC01ED
:10414000CB01801B910BA20BB30B893E9340A105C1
:10415000B10510F40C94EC2BC090DC01D090DD0183
:10416000E090DE01F090DF016091D8017091D901FB
:104170008091DA019091DB014091D6015091D701F5
:104180005EA34DA328EE33E040E050E00E94FF2FF5
:10419000298B3A8B1A014B01F82FE92F8DA19EA193
:1041A000BC0180E090E069877A878B879C879B01C0
:1041B000AC01C701B6010E94552F8B019C015B0128
:1041C0006901E12CF12C00E010E029893A89A10174
:1041D000B4018F2F9E2F0E942C303093D501209355
:1041E000D4012091D4013091D50144E2429FC00115
:1041F000439F900D11246AE070E00E94712F70932C
:10420000D3016093D201A090DC01B090DD01C09099
:10421000DE01D090DF01AF8AB88EC98EDA8EA09011
:10422000CA01B090CB01C090CC01D090CD01E090FC
:10423000CE01F090CF01E091D0011091D101009119
:10424000BB01098B2091BA012A8B9501A601B70108
:104250008E2F912F04E00E9489300E2F0E94C930CA
:10426000A988B12CC12CD12CE12CF12C00E010E05C
:104270000E94A62FAA880E94A62F19014B8F5B8B44
:104280006BA37CA34C016F89788D898D9A8D20E07A
:1042900030E140E050E00E94FF2F59016A017B01AC
:1042A0008C0191014B8D5B896BA17CA1C4010E94A3
:1042B0002C303093C9012093C801A090DC01B0904C
:1042C000DD01C090DE01D090DF01AB8ABC8ACD8ACF
:1042D000DE8AC090D801D090D901E090DA01F09048
:1042E000DB01CF8AD88EE98EFA8E2091C8013091F9
:1042F000C9016DA17EA1AB0160E070E080E090E0BB
:10430000DC014B8F5C8F6D8F7E8F8F8F98A3A9A35D
:10431000BAA340E050E069857A858B859C850E9430
:10432000FF2FCB88DC88ED88FE8856016701E12CE1
:10433000F12C8701A986BA86CB86DC86ED86FE86BF
:104340000F87188BE12CF12C00E010E00E94A62FC3
:1043500029873B8B4A016BA37CA31C016F89788D55
:10436000898D9A8D24E230E040E050E00E94FF2FDA
:1043700059016A017B018C0129853B89A4016BA14C
:104380007CA1C1010E942C303093C7012093C6014B
:10439000E09129028E2F90E08B30910510F00C9463
:1043A000E22BFC01EC5CFF4F0C94992F0E945D0BFB
:1043B00081E08093800288E68093A20210928102BD
:1043C0001092A30281E190E00E946E090E941109FF
:1043D00082E090E00E94140B84EA92E00E940316AF
:1043E000182F84EA92E00E94031626E0959587959F
:1043F0002A95E1F7682F70E080E090E00E94332E6C
:1044000020E030E040E85EE30E94E82E6B017C0192
:10441000612F110F770B880B990B0E94332E9B0194
:10442000AC01C701B6010E94182D6B017C0120E090
:1044300030E0A9010E94E32E20E030E040E05FE39D
:1044400018162CF4C701B6010E94182D04C0C7012C
:10445000B6010E94172D0E94FB2D709323026093DA
:1044600022028091C102823008F451C061E0CE0185
:1044700001960E94720D8091C3029091C4020E9425
:10448000001A813009F043C00E94241A6B017C019C
:1044900020E030E0A9010E94842D811106C0C12CCA
:1044A000D12C8CE0E82E82ECF82E0E94D80B20E074
:1044B00030E040E752E4C701B6010E94842D87FF37
:1044C00026C020E030E04CE052ECC701B6010E946B
:1044D000E32E1816E4F420E030E0A901C701B6018C
:1044E0000E94E32E20E030E040E05FE318162CF459
:1044F000C701B6010E94182D04C0C701B6010E9471
:10450000172D0E94FB2D709323026093220280914D
:10451000C3029091C4020E94001A813009F044C085
:1045200080E00E94241A6B017C0120E030E0A901A8
:104530000E94842D811106C0C12CD12C0CE0E02EEC
:1045400002ECF02E0E94D80B20E030E040E752E46D
:10455000C701B6010E94842D87FF26C020E030E00D
:104560004CE052ECC701B6010E94E32E1816E4F4A9
:1045700020E030E0A901C701B6010E94E32E20E04F
:1045800030E040E05FE318162CF4C701B6010E944A
:10459000182D04C0C701B6010E94172D0E94FB2DE3
:1045A000709306016093050100912E020A3080F09D
:1045B000202F30E0802F6AE00E94652F092FC9016B
:1045C000801B91096AE070E00E94852FF62E01C0E1
:1045D000F12CE0902D0219E0D12EDE1480F42E2D66
:1045E00030E08E2D6AE00E94652FE92EC9018E19F8
:1045F00091096AE070E00E94852F162F01C010E03B
:1046000043E060E080E00E942D15809122029091AD
:1046100023020E94D00ADD24D39422E0F21629F06E
:10462000D12C31E03F1558F007C0809122029091C3
:104630002302873F9F4F1CF08FED0E947C0A43E0CE
:1046400061E080E00E942D158091050190910601A6
:104650008E3D5FEF95072CF48CE791E00E940F09E7
:1046600002C00E94D00ADD2059F08091050190918E
:104670000601873F9F4F24F08FED0E947C0A03C004
:1046800071E07F15C8F763E08F2D0E94F21366E09A
:10469000802F0E94F2136AE0812F0E94F2136DE0D6
:1046A0008E2D0E94F2130C94E22B43E060E080E038
:1046B0000E942D158091C4019091C5010E94CA0AE3
:1046C00060E085E00E9484098DE192E00E94F80993
:1046D00044E061E080E00E942D158091C40190913A
:1046E000C501069708F44FC06091C2017091C301E3
:1046F000CB01A0E0B0E0BC01CD016E5C7F4F8F4FDD
:104700009F4FA30192010E94E62CC9010E94CA0A90
:1047100083E791E00E940F09C090C201D090C301CD
:104720008091C2019091C301E12CF12CA2E3CA0E49
:10473000D11CE11CF11CA0E0B0E0BC01CD016E5C1D
:104740007F4F8F4F9F4FA30192010E94E62CA8EE4E
:10475000B3E00E94DB2C97018601061B170B280B88
:10476000390BC901B80124E630E040E050E00E9476
:10477000E62CC9010E94CA0A61E085E00E94840912
:1047800085E192E0DEC76091C0017091C101CB016B
:10479000A0E0B0E0BC01CD016E5C7F4F8F4F9F4F1A
:1047A000A30192010E94E62CC9010E94CA0A83E774
:1047B00091E00E940F09C090C001D090C10180918A
:1047C000C0019091C101E12CF12C12E3C10ED11C6A
:1047D000E11CF11CA0E0B0E0BC01CD016E5C7F4F9C
:1047E0008F4F9F4FA30192010E94E62CA8EEB3E0E9
:1047F0000E94DB2CA7019601261B370B480B590B97
:10480000CA01B90124E630E040E050E00E94E62C05
:10481000C9010E94CA0A61E085E00E9484098DE016
:1048200092E08FC760E080E00E94840989E092E016
:104830000E94F80944E060E084E00E942D15809118
:10484000D2019091D3010E94CA0A60E089E00E94DF
:10485000840984E092E00E94F80961E080E00E940F
:10486000840980E092E00E94F80944E061E084E07D
:104870000E942D156091C6017091C701CB01A0E087
:10488000B0E0BC01CD016E5C7F4F8F4F9F4FA30105
:1048900092010E94E62CC9010E94CA0A83E791E0B6
:1048A0000E940F09C090C601D090C7018091C60137
:1048B0009091C701E12CF12C32E3C30ED11CE11C15
:1048C000F11CA0E0B0E0BC01CD016E5C7F4F8F4FCA
:1048D0009F4FA30192010E94E62CA8EEB3E00E9434
:1048E000DB2C97018601061B170B280B390BC9011E
:1048F000B80124E630E040E050E00E94E62CC90117
:104900000E94CA0A61E089E00E94840988EF91E070
:1049100018C760E080E00E9484096091DC0170911A
:10492000DD018091DE019091DF0120E13EE040E079
:1049300050E00E94E62C822F0E94F1098EE791E060
:104940000E940F096091DC017091DD018091DE0110
:104950009091DF0120E13EE040E050E00E94E62C33
:10496000683572408105910520F480E891E00E944D
:104970000F096091DC017091DD018091DE01909161
:10498000DF0120E13EE040E050E00E94E62C2CE315
:1049900030E040E050E00E94E62C822F0E94F109B6
:1049A0008EE791E00E940F096091DC017091DD01BA
:1049B0008091DE019091DF012CE330E040E050E097
:1049C0000E94E62C6A3071058105910520F480E88B
:1049D00091E00E940F096091DC017091DD018091EE
:1049E000DE019091DF012CE330E040E050E00E94D6
:1049F000E62C862F0E94F10961E080E00E94840984
:104A00008091BC019091BD01A091BE01B091BF0108
:104A1000BC01CD016B5F7F4F8F4F9F4FA301920170
:104A20000E94E62CC9010E94CA0A8091BC019091A3
:104A3000BD01A091BE01B091BF0180349244AF404E
:104A4000B10508F048C083E791E00E940F09C090CB
:104A5000BC01D090BD01E090BE01F090BF018091FB
:104A6000BC019091BD01A091BE01B091BF0135E0A4
:104A7000C30ED11CE11CF11CBC01CD016B5F7F4F4B
:104A80008F4F9F4FA30192010E94E62C4427552788
:104A9000A8EEB3E00E94DB2C97018601061B170BE2
:104AA000280B390BC901B8012AE030E040E050E0A2
:104AB0000E94E62C30932102209320022A303105F7
:104AC00020F480E891E00E940F09809120029091EB
:104AD00021020E94CA0A84EF91E00E94F8094091E5
:104AE000BB018091BA01A090CA01B090CB01C090E7
:104AF000CC01D090CD01E090CE01F090CF0100919B
:104B0000D0011091D101489FA0011124952F990F38
:104B1000990B9A01492F592F692F792F892F0E94BC
:104B2000A62FA12CB12CBFE0CB2ED12CE12CF12C47
:104B300000E010E00E942C30C901DA0180931C02D1
:104B400090931D02A0931E02B0931F026C017D0181
:104B500015E0C10ED11CE11CF11CC701B601A30177
:104B600092010E94E62CC9012FA338A749A75AA792
:104B70000E94CA0A80911C0290911D02A0911E02FF
:104B8000B0911F022FA138A549A55AA5803A964891
:104B9000A140B10558F544275527A8EEB3E00E947F
:104BA000DB2C97018601061B170B280B390BC9015B
:104BB000B8012AE030E040E050E00E94E62C890194
:104BC00083E791E02FA338A749A75AA70E940F09AE
:104BD0002FA138A50A30110530F480E891E00E9439
:104BE0000F0938A52FA1C9010E94CA0A82E891E0E5
:104BF00097C560E080E00E948409A090CA01B0904F
:104C0000CB01C090CC01D090CD01E090CE01F090CE
:104C1000CF010091D0011091D10129893A89239FB8
:104C2000B0011124972F990F990B9B01492F592FF0
:104C3000692F792F892F0E94A62FA12CB12CAFE0CC
:104C4000CA2ED12CE12CF12C00E010E00E942C3077
:104C500020931C0230931D0240931E0250931F02AA
:104C6000A091B801B091B9010E94DB2C60931802A9
:104C70007093190280931A0290931B026B017C01BE
:104C800044EFC40E41E0D41EE11CF11CC701B60183
:104C900020EA36E841E050E00E94E62C60EA76E83F
:104CA00081E090E00E94552F97018601061B170BAB
:104CB000280B390BC901B801A30192010E94E62C0F
:104CC000209317028DEE91E00E94F809809118025E
:104CD00090911902A0911A02B0911B02BC01CD0162
:104CE0006C507E4F8F4F9F4F20EA36E841E050E0F6
:104CF0000E94E62CC9010E94CA0A83E791E00E9443
:104D00000F09809117028A3020F480E891E00E9418
:104D10000F09809117020E94F10989EE91E00E942B
:104D2000F80961E080E00E948409A091C601B09179
:104D3000C7012091B8013091B9010E94082D6093FC
:104D400013027093140280931502909316026B0164
:104D50007C0110E5C10E13ECD11EE11CF11CE7E053
:104D600021E030E040E050E0AAE0B0E00E94DB2C1F
:104D70009B01AC01E150C1F7C701B6010E94E62CCE
:104D800049015A01AA24BB24E7E021E030E040E0D9
:104D900050E0AAE0B0E00E94DB2C9B01AC01E150A6
:104DA000C1F7C501B4010E94552FA7019601261B2A
:104DB000370B480B590BCA01B90120EA36E841E02C
:104DC00050E00E94E62C2093170284EE91E00E94AE
:104DD000F809C0901302D0901402E0901502F090F0
:104DE000160230E5C30E33ECD31EE11CF11CE7E0E4
:104DF00021E030E040E050E0AAE0B0E00E94DB2C8F
:104E00009B01AC01E150C1F7C701B6010E94E62C3D
:104E1000C9010E94CA0A83E791E00E940F098091AC
:104E200017028A3020F480E891E00E940F098091F7
:104E300017020E94F10980EE91E083C44091DC01E9
:104E40005091DD016091DE017091DF018091B4012C
:104E50009091B501A091B601B091B7015A016B01D3
:104E6000A80EB91ECA1EDB1EAF8AB88EC98EDA8E96
:104E7000A0920F02B0921002C0921102D0921202C0
:104E8000C090B001D090B101E090B201F090B301B8
:104E9000C986DA86EB86FC86E090BC01F090BD0105
:104EA0000091BE011091BF01EB8AFC8A0D8B1E8B15
:104EB00069857A858B859C8528EE33E040E050E05B
:104EC0000E94FF2FAB8CBC8CC12CD12CE12CF12C7F
:104ED00000E010E00E942C3049015A018B899C8926
:104EE000AD89BE89880D991DAA1DBB1D80930B023B
:104EF00090930C02A0930D02B0930E022091CA0170
:104F00003091CB014091CC015091CD016091CE0107
:104F10007091CF018091D0019091D101A090A80112
:104F2000B090A901C090AA01D090AB01E090AC0173
:104F3000F090AD010091AE011091AF010E94C03020
:104F4000922E832E4B8F5B8B6BA37CA3382E292E46
:104F5000209303023093040240930502509306020B
:104F600060930702709308028093090290930A02EB
:104F70008091D8019091D901A091DA01B091DB0123
:104F800009851A852B853C85080F191F2A1F3B1F91
:104F900009871A872B873C870093FF011093000233
:104FA00020930102309302021989612F70E080E0A2
:104FB00090E0AA892A2F30E040E050E00E94FF2FC5
:104FC00059016A017B01E82F192F04E00E94893002
:104FD0000E2F0E94C930A92CB82CCB8CDB88EBA0FB
:104FE000FCA0032D122D0E94A62F1901498B5A8B6C
:104FF0006B8F7B8B4C016F89788D898D9A8D20E02A
:1050000030E140E050E00E94FF2F59016A017B012E
:105010008C01910149895A896B8D7B89C4010E9459
:105020002C305901C901A0E0B0E08093FB019093BE
:10503000FC01A093FD01B093FE01CDA0DEA096017E
:1050400040E050E06F89788D898D9A8D0E94FF2F06
:10505000C12CD12CE12CF12C00E010E00E94A62FF5
:105060001901498B5A8B6DA37F8B4C0169857A8519
:105070008B859C8524E230E040E050E00E94FF2FC9
:1050800059016A017B018C01910149895A896DA1FD
:105090007F89C4010E942C30C901A0E0B0E0809358
:1050A000F7019093F801A093F901B093FA0160E041
:1050B00080E00E9484098BED91E00E94F8096091E4
:1050C0000F0270911002809111029091120220E162
:1050D0003EE040E050E00E94E62C822F0E94F10961
:1050E0008EE791E00E940F0960910F02709110020B
:1050F000809111029091120220E13EE040E050E0E8
:105100000E94E62C683572408105910520F480E804
:1051100091E00E940F0960910F027091100280913E
:1051200011029091120220E13EE040E050E00E9426
:10513000E62C2CE330E040E050E00E94E62C822F89
:105140000E94F10988E791E00E940F098091F70120
:105150009091F801A091F901B091FA01BC01CD0143
:105160006E5C7F4F8F4F9F4FA30192010E94E62CF0
:10517000C9010E94CA0A83E791E00E940F09809149
:10518000F7019091F801A091F901B091FA016C0139
:105190007D0112E3C10ED11CE11CF11CC701B60157
:1051A000A30192010E94E62C44275527A8EEB3E004
:1051B0000E94DB2CA7019601261B370B480B590BCD
:1051C000CA01B90124E630E040E050E00E94E62C3C
:1051D000C9010E94CA0A83ED91E00E94F80961E0CA
:1051E00080E00E94840980910B0290910C02A091B2
:1051F0000D02B0910E02BC01CD016C507E4F8F4F5D
:105200009F4FA30192010E94E62CC9010E94CA0A85
:105210008FEC91E00E94F8098091BB014091BA01A6
:10522000849FA0011124952F990F990BA090030240
:10523000B0900402C0900502D0900602E0900702F0
:10524000F09008020091090210910A029A01492F78
:10525000592F692F792F892F0E94A62FA12CB12CAD
:10526000FFE0CF2ED12CE12CF12C00E010E00E94C9
:105270002C30C901DA018093F3019093F401A093DB
:10528000F501B093F601BC01CD016C507E4F8F4FFC
:105290009F4FA30192010E94E62CA5CC60E080E024
:1052A0000E9484098EEB91E00E94F80961E080E0A1
:1052B0000E9484098DEA91E044C20E94840F0E94FA
:1052C0005E0F8FE00E9419179093F2018093F10115
:1052D00060E080E00E94840988EA91E00E94F80979
:1052E00046E060E084E00E942D156091A601709177
:1052F000A701CB01A0E0B0E0BC01CD016B5F7F4F07
:105300008F4F9F4FA30192010E94E62CC9010E947A
:10531000CA0A83E791E00E940F09C090A601D090CD
:10532000A701E12CF12C35E0C30ED11CE11CF11CCE
:10533000C701B601A30192010E94E62CA8EEB3E0DA
:105340000E94DB2C97018601061B170B280B390BDB
:10535000C901B8012AE030E040E050E00E94E62CAC
:105360002A30310520F480E891E00E940F09C090B6
:10537000A601D090A701E12CF12C15E0C10ED11CA3
:10538000E11CF11CC701B601A30192010E94E62CA9
:10539000A8EEB3E00E94DB2CA7019601261B370B79
:1053A000480B590BCA01B9012AE030E040E050E057
:1053B0000E94E62CC9010E94CA0A60E089E00E94AE
:1053C000840984E891E00E940F096091A401709122
:1053D000A501CB01770FAA0BBB0BBC01CD016B5F05
:1053E0007F4F8F4F9F4FA30192010E94E62CC9016E
:1053F0000E94CA0A83E791E00E940F09C090A401AD
:10540000D090A5010D2C000CEE08FF0835E0C30E6E
:10541000D11CE11CF11CC701B601A30192010E943D
:10542000E62C44275527A8EEB3E00E94DB2C970119
:105430008601061B170B280B390BC901B8012AE09E
:1054400030E040E050E00E94E62C2A30310520F4A4
:1054500080E891E00E940F09C090A401D090A501BE
:105460000D2C000CEE08FF0815E0C10ED11CE11C4C
:10547000F11CC701B601A30192010E94E62C44274A
:105480005527A8EEB3E00E94DB2CA7019601261B4E
:10549000370B480B590BCA01B9012AE030E040E054
:1054A00050E00E94E62CC9010E94CA0A87E891E0F8
:1054B00037C12091CA013091CB014091CC0150916C
:1054C000CD016091CE017091CF018091D00190917A
:1054D000D101A090A801B090A901C090AA01D090DC
:1054E000AB01E090AC01F090AD010091AE011091E4
:1054F000AF010E94C030192F2093030230930402A1
:1055000040930502509306026093070270930802CD
:105510008093090290930A029989AA899A9FF001BF
:1055200011249F2F990F990B59016A017B01082FB4
:105530009F01492F592F692F792F892F0E94A62F5C
:10554000A12CB12CEFE0CE2ED12CE12CF12C00E0DF
:1055500010E00E942C30B901CA012093F30170932E
:10556000F4014093F5019093F6012091A10140913F
:10557000A2015091A301420F511DEAE0E49F900166
:10558000E59F300D11246901E12CF12C24E630E077
:1055900040E050E00E94E62CC701B601621B730B8D
:1055A000840B950B9B01AC016093ED017093EE01B0
:1055B0008093EF019093F001E091C601F091C70153
:1055C000A0E1B7E20E94DB2C9F0140E050E00E9486
:1055D000E62C2093E9013093EA014093EB015093CC
:1055E000EC0160E080E00E94840980EA91E00E9482
:1055F000F80944E060E087E00E942D15C090ED01BD
:10560000D090EE01E090EF01F090F001EFEF21E09B
:1056100030E040E050E0AAE0B0E00E94DB2C9B01CB
:10562000AC01E150C1F7A5E0B0E00E94DB2C6C0DAD
:105630007D1D8E1D9F1D2AE030E040E050E00E945D
:10564000E62CC9010E94CA0A83E791E00E940F0973
:105650008090ED019090EE01A090EF01B090F001EC
:10566000EFEF21E030E040E050E0AAE0B0E00E943F
:10567000DB2C9B01AC01E150C1F7A5E0B0E00E943A
:10568000DB2C6B017C01C80CD91CEA1CFB1CEFEF66
:1056900021E030E040E050E0AAE0B0E00E94DB2CE6
:1056A0009B01AC01E150C1F7A5E0B0E00E94DB2C0A
:1056B000680D791D8A1D9B1D2AE030E040E050E016
:1056C0000E94E62C44275527AAE0B0E00E94DB2C7C
:1056D00097018601061B170B280B390BD901C8014E
:1056E0000E94CA0A89E891E00E940F0961E080E007
:1056F0000E94840988E991E00E94F80944E061E091
:1057000087E00E942D156091E9017091EA01809176
:10571000EB019091EC014AE00E94B0098BE891E026
:105720000E940F094FC060E084E00E9484098BE86A
:1057300091E00E94F80961E089E00E94840983E811
:1057400091E00E94F8093EC060E080E00E94840978
:1057500082E791E00E94F80961E080E00E948409FC
:1057600080919F019091A001A0E0B0E02AE0B69561
:10577000A795979587952A95D1F7082F20919F0196
:105780003091A001232B29F0892B8A2B8B2B09F434
:1057900001E010E0101729F08FEF0E947C0A1F5FD4
:1057A000F9CF00E080E1E82EF12CE11AF108802F1A
:1057B00090E08E159F0534F488E791E00E940F0970
:1057C0000F5FF5CF0E947017609325027093260239
:1057D000809327029093280280912902811124C08E
:1057E0008DE00E948416182F809124021817E1F092
:1057F0001093240260E089E00E948409112319F0CB
:105800008EE891E002C088E791E00E940F0961E014
:1058100089E00E948409112319F08EE891E002C00A
:1058200088E791E00E940F0980E090E0892B11F455
:105830000C94621C0E9400000C94621C1093BD0228
:105840000C940A1C1092A7021092A60288EE93E014
:10585000A0E0B0E08093A8029093A902A093AA02CE
:10586000B093AB0289E591E09093A5028093A402E6
:1058700060E086E00E94DD16E1E0F4E0E491E09370
:10588000D102EDEEF3E0E491F0E0EE0FFF1FE35202
:10589000FC4F859194919093D3028093D202109201
:1058A000DC021092DE021092DD02ECEDF2E01292C8
:1058B00082E0E43DF807D9F781ED92E09093C402CD
:1058C0008093C3021092C1021092C2021092BD02D4
:1058D00089E08093BE0281E08093BF028093C00282
:1058E0001092D0021092CF021092B3021092B20224
:1058F0008BE691E09093B1028093B0021092B902CE
:1059000087E28093B40280E18093BA0282E08093C0
:10591000BB021092BC020895DC01CB01FC01F99995
:10592000FECF06C0F2BDE1BDF89A319600B40D92EB
:1059300041505040B8F70895F999FECF92BD81BD0E
:10594000F89A992780B50895DC01CB0103C02D9109
:105950000E94AF2C41505040D0F70895262FF9995E
:10596000FECF1FBA92BD81BD20BD0FB6F894FA9A42
:10597000F99A0FBE01960895052E97FB1EF4009428
:105980000E94D32C57FD07D00E94E62C07FC03D0C1
:105990004EF40C94D32C50954095309521953F4F63
:1059A0004F4F5F4F089590958095709561957F4F0B
:1059B0008F4F9F4F08950E94082DA59F900DB49F73
:1059C000900DA49F800D911D11240895A1E21A2E1F
:1059D000AA1BBB1BFD010DC0AA1FBB1FEE1FFF1F93
:1059E000A217B307E407F50720F0A21BB30BE40BE3
:1059F000F50B661F771F881F991F1A9469F760952A
:105A00007095809590959B01AC01BD01CF010895E3
:105A1000A29FB001B39FC001A39F700D811D1124EF
:105A2000911DB29F700D811D1124911D0895505834
:105A3000BB27AA270E942F2D0C94A92E0E949B2ED3
:105A400038F00E94A22E20F039F49F3F19F426F47A
:105A50000C94982E0EF4E095E7FB0C94922EE92F0F
:105A60000E94BA2E58F3BA17620773078407950786
:105A700020F079F4A6F50C94DC2E0EF4E0950B2EB4
:105A8000BA2FA02D0B01B90190010C01CA01A00190
:105A90001124FF27591B99F0593F50F4503E68F1EB
:105AA0001A16F040A22F232F342F4427585FF3CF2C
:105AB000469537952795A795F0405395C9F77EF4FD
:105AC0001F16BA0B620B730B840BBAF09150A1F046
:105AD000FF0FBB1F661F771F881FC2F70EC0BA0FCC
