:100000000C94AA020C94F2170C94CB170C94D20205
:100010000C94D2020C94D2020C94D2020C94D20210
:100020000C94D2020C94D2020C94D2020C94D20200
:100030000C94D2020C94D2020C94D2020C94D202F0
:100040000C9481170C94D2020C94D2020C94D2021C
:100050000C94D2020C94D2020C94D2020C94D202D0
:100060000C945B180C94D202DB215A23A92B172481
:100070008E24FE255E2A232753296229982B5305B7
:10008000640567056A05560561055B055E056D0536
:1000900070057305A705770846094909EC06390874
:1000A0009A070408B809450A202020202020202093
:1000B0002020202020202020002020202020202060
:1000C0002020202073746F703E00202021212120E9
:1000D000535441525420212121002020202020204F
:1000E000202020202073746F703E005A6174727A51
:1000F000796D616A206175746F2021006F7374617E
:10010000746E6920706F6D6961723A006B6D2F6853
:1001100000202020202020202020202020202020FF
:100120002000202020202020202020202073746FF9
:10013000703E00202121212053544152542021217E
:100140002100202020202020202020202073746FD8
:10015000703E005A6174727A796D616A20617574BB
:100160006F2021006F737461746E6920706F6D6908
:1001700061723A002E202E202E202E202E202E209E
:100180002E202E20006B6173756A203E00757374FB
:10019000617769656E6961203E00706F7A6F737474
:1001A0003A0070616C69776F3A00616B753A006371
:1001B0007A6173206E6120312F346D696C693E0065
:1001C000637A617320646F203130306B6D2F683E2D
:1001D000006B6D20006C2F3130306B6D004F444F41
:1001E0003A00207A6C00316B6D3A00207A6C006B1B
:1001F0006F737A743A006B6D20006C2F3130306B66
:100200006D0073722E006B6D2F680073722E006C80
:100210002F6820202020006C2F3130306B6D006B58
:100220006D2F6800676F647A2E202020207A61701D
:1002300069737A3E006D696E7574792020202064A0
:10024000616C656A3E0070727A65706C7977202007
:100250007A617069733E0070727A65706C7977208C
:100260002020207831303E00696D70756C737920E4
:1002700020207A617069733E00696D70756C7379C6
:1002800020202078313030303E00696D70756C73FD
:100290007920202020783130303E00696D70756CF7
:1002A000737920202020207831303E007A62696FF7
:1002B000726E696B20207A617069733E007773708B
:1002C0006F6C637A796E6E696B204F4B3E0063658D
:1002D0006E612070616C2E207A617069733E0063DC
:1002E000656E612070616C2E2020783130303E00C8
:1002F00063656E612070616C697761207831303E92
:100300000056416363752020202020207A617069A7
:10031000733E00646F74616E6B6F772E207A61702C
:1003200069733E00696C65206C6974726F77202078
:100330007831303E00776572736A612000646F74B3
:10034000616E6B6F77616E69652020203E006B6186
:100350006C6962722E56416363752020203E006BEB
:100360006F7069756A204F444F3E547269703E0049
:100370006B6173756A205452495020202020203E22
:100380000063656E612070616C69776120202020B8
:100390003E007773706F6C637A796E6E696B2020A4
:1003A000203E00706F6A656D6E6F73632062616BD3
:1003B00075203E00696D702E2F6B6D20202020204F
:1003C0002020203E0077747279736B697761637ABD
:1003D000202020203E007A656761722020202020A6
:1003E00075737461773E0000000000230026002929
:1003F00000040404040404040402020202020203CE
:1004000003030303030102040810204080010204D7
:100410000810200102040810202020202020202085
:100420002020202077796A2E3E00005EBCE2613FEA
:10043000DD83C29C7E20A3FD1F419DC3217FFCA2C2
:10044000401E5F01E3BD3E6082DC237D9FC1421CF4
:10045000FEA0E1BF5D0380DE3C62BEE0025CDF81A6
:10046000633D7C22C09E1D43A1FF4618FAA4277954
:100470009BC584DA3866E5BB5907DB856739BAE482
:1004800006581947A5FB7826C49A653BD987045AB4
:10049000B8E6A7F91B45C6987A24F8A6441A99C766
:1004A000257B3A6486D85B05E7B98CD2306EEDB314
:1004B000510F4E10F2AC2F7193CD114FADF3702E42
:1004C000CC92D38D6F31B2EC0E50AFF1134DCE9074
:1004D000722C6D33D18F0C52B0EE326C8ED0530D26
:1004E000EFB1F0AE4C1291CF2D73CA947628ABF5D4
:1004F00017490856B4EA6937D58B5709EBB5366802
:100500008AD495CB2977F4AA4816E9B7550B88D633
:10051000346A2B7597C94A14F6A8742AC896154BE5
:10052000A9F7B6E80A54D7896B350000000024000B
:1005300027002A0000000000250028002B000000F2
:100540000008000201000003040700000000000092
:100550000000272C11241FBECFEFD8E0DEBFCDBF97
:1005600011E0A0E0B1E0E4EDF1E602C005900D92EB
:10057000AA39B107D9F723E0AAE9B1E001C01D9279
:10058000A533B207E1F712E0CAEAD2E004C021972E
:10059000FE010E949E2FC93AD107C9F70E94A41AF2
:1005A0000C94E8300C9400002F923F924F925F928F
:1005B0006F927F928F929F92AF92BF92CF92DF9273
:1005C000EF92FF920F931F93CF93DF9384E00E94EB
:1005D0008916892B49F48091A0019091A10101967F
:1005E0009093A1018093A0018091A2019091A30119
:1005F000892B09F061C18DE00E94891661E0892B89
:1006000009F060E08DE00E94B21680918400909124
:10061000850090939D0180939C011092850010921B
:1006200084008091A0019091A1019093A6018093F4
:10063000A50180919C0190919D01892B21F410923C
:100640009D0110929C0120919C0130919D0180910F
:10065000DE019091DF01A091E001B091E101820FF4
:10066000931FA11DB11D8093DE019093DF01A09324
:10067000E001B093E1016091DE017091DF018091B2
:10068000E0019091E101C091DC01D091DD0128EE03
:1006900033E040E050E00E9404305E01C12CD12CD8
:1006A000E12CF12C00E010E00E943130C901DA01A8
:1006B0008093C2019093C301A093C401B093C5017C
:1006C00060919C0170919D0180E090E028EE33E004
:1006D00040E050E00E9404300E94313030939F018E
:1006E00020939E0120919E0130919F0144E2429F00
:1006F000C001439F900D11246AE070E00E94762FA4
:100700007093CB016093CA018091A0019091A101E7
:10071000892B39F08091A0019091A101843B9046F2
:1007200028F11092A1011092A0011092C70110921D
:10073000C6011092C9011092C8018091CA0190911E
:10074000CB01059798F08091E2019091E301A0918F
:10075000E401B091E5010196A11DB11D8093E20174
:100760009093E301A093E401B093E5018091A0018F
:100770009091A101892B09F49FC08090A0019090D5
:10078000A1016090D0017090D101B091D201A091EF
:10079000D301F091D401E091D5010091D6011091DF
:1007A000D701940140E050E060E070E080E090E02C
:1007B0005301CB2EDA2EEF2EFE2E0E94C530209351
:1007C000D0013093D1014093D2015093D301609373
:1007D000D4017093D5018093D6019093D701609195
:1007E000A0017091A1012091C10180E090E030E072
:1007F00040E050E00E94043059016A017B01E82F7B
:10080000192F04E00E948E300E2F0E94CE30A0904F
:10081000C001B12CC12CD12CE12CF12C00E010E056
:100820000E94AB2F0CE00E94A9303093C7012093A7
:10083000C601E0909C01F0909D016091C60170910D
:10084000C70180E090E09E0140E050E00E9404304B
:1008500029013A014B01D82FC92FB70180E090E060
:1008600024E230E040E050E00E94043059016A0187
:100870007B018C019201A301B4018D2F9C2F0E945A
:1008800031303093C9012093C8018091E2019091E9
:10089000E301A091E401B091E5010196A11DB11D14
:1008A0008093E2019093E301A093E401B093E5010A
:1008B0001092A1011092A0018091A2019091A30138
:1008C00001969093A3018093A2018091A20190913F
:1008D000A3018115904821F41092A3011092A20166
:1008E000DF91CF911F910F91FF90EF90DF90CF900C
:1008F000BF90AF909F908F907F906F905F904F9040
:100900003F902F900895FC0190810180F281E02DAD
:10091000892F809560FF12C0F89422818223828300
:100920008181892B8183A3E2B0E01197F1F7828165
:10093000982B9283789487ED90E011C0F8942281EF
:10094000822382838181892B8183AFEFB0E011976D
:10095000F1F78281982B928378948FE090E0019751
:10096000F1F70895FC0190810180F281E02DF89467
:100970008181292F20958223818378948DE743E01C
:1009800050E0815021F1DA011197F1F730813923DC
:10099000C1F3F8948281822382838181892B8183B0
:1009A0007894ABE7B7E01197F1F7F89481812823A9
:1009B0002183A3E1B1E01197F1F78081982381E0D1
:1009C00009F080E07894E3E6F6E03197F1F70895D6
:1009D0000C94B32C0C94A12C1092BA011092BB0170
:1009E0001092BC011092BD011092B6011092B70195
:1009F0001092B8011092B9011092AE011092AF019D
:100A00001092B0011092B1011092B2011092B30194
:100A10001092B4011092B5011092A9011092A80190
:100A20000C94E6112F923F924F925F926F927F92B9
:100A30008F929F92AF92BF92CF92DF92EF92FF92EE
:100A40000F931F93CF93DF93CDB7DEB72B970FB6DE
:100A5000F894DEBF0FBECDBFA8EE4A2EA3E05A2EFB
:100A6000612C712C1AE00E94D60B0E94621360E088
:100A700080E00E94410B809131028F3F11F410936E
:100A80003102809131028B3010F010923102E091EE
:100A900031028E2F90E08B30910568F5FC01E15C0E
:100AA000FF4F0C949E2F86ED93E002C085EC93E0FF
:100AB0000E94B50B20C084EB93E0FACF83EA93E069
:100AC000F7CF82E993E0F4CF81E893E0F1CF80E7BC
:100AD00093E0EECF8FE593E0EBCF8EE493E0E8CFA9
:100AE0008DE393E0E5CF85E393E00E94B50B80E9C9
:100AF00091E00E94CC0A1092A4018091A40181117E
:100B000005C00E94BD0F8093A401F7CF843009F483
:100B100018C5813021F4809131028F5F05C0823089
:100B200031F4809131028150809331029CCF833027
:100B300009F099CF0E94D60BE0913102F0E0EA3043
:100B4000F10508F090CFE65BFF4F0C949E2F85E3F4
:100B500092E00E94B50B0E9462130E941A0D8091D0
:100B600034028A3020F480E891E00E94CC0A80911F
:100B700034020E94AE0B8EE791E00E94CC0A809175
:100B800033028A3020F480E891E00E94CC0A809100
:100B900033020E94AE0B61E083E00E94410B809122
:100BA000BC02982F91609093BC0289600E94300B28
:100BB0001CE31092A4018091A401811105C00E9440
:100BC000BD0F8093A401F7CF8130F1F480913302FF
:100BD0008F5F8C3318F48093330202C0109233027B
:100BE00061E083E00E94410B809133028A3020F45F
:100BF00080E891E00E94CC0A809133020E94AE0B03
:100C000061E083E00E94410B8091A4018230F9F4FD
:100C100080913302811102C010933302809133021C
:100C200081508093330261E083E00E94410B809108
:100C300033028A3020F480E891E00E94CC0A80914F
:100C400033020E94AE0B61E083E00E94410B809171
:100C5000A401843009F4B7C0833009F0AACF60E062
:100C600080E00E94410B84E292E00E94B50B61E0BB
:100C700081E00E94410B18E11092A4018091A4012F
:100C8000811105C00E94BD0F8093A401F7CF813070
:100C9000F1F4809134028F5F883118F4809334022C
:100CA00002C01092340261E080E00E94410B80910A
:100CB00034028A3020F480E891E00E94CC0A8091CE
:100CC00034020E94AE0B61E081E00E94410B8091F2
:100CD000A4018230F9F480913402811102C0109392
:100CE00034028091340281508093340261E080E0CC
:100CF0000E94410B809134028A3020F480E891E018
:100D00000E94CC0A809134020E94AE0B61E081E027
:100D10000E94410B8091A401843009F454C08330B7
:100D200009F0AACF709132026091330250913402DF
:100D3000309135022091360280913702909138022D
:100D400040913902803DA7E09A071CF0805D00E8E1
:100D500002C08C5600E079836A835B834C833D83B9
:100D60002E838F8381E08093860288E68093A80299
:100D7000109287021092A90280E090E00E942B0B53
:100D80009E012F5F3F4F790110E0FAE0DF2EF7015F
:100D900080816D2D0E946A2F30E1839F900D112478
:100DA0009083153019F48E81800F8E834FEFE41AF3
:100DB000F40A60818AEA92E00E9454161F5F17309D
:100DC00031F70E94CE0A8091BC028E7F8093BC02D4
:100DD00088600E94300B46CE2090C10187E592E0EA
:100DE0000E94B50B332433940E9462138091C10199
:100DF0000E94AE0B4091C1018091C001A090D00132
:100E0000B090D101C090D201D090D301E090D40134
:100E1000F090D5010091D6011091D701489FA00113
:100E20001124952F990F990B9A01492F592F692F4A
:100E3000792F892F0E94AB2FA12CB12CEFE0CE2E61
:100E4000D12CE12CF12C00E010E00E94313049015E
:100E50005A0155E0850E911CA11CB11CC501B401BD
:100E6000A30192010E94EB2C69017A0144275527C6
:100E7000A8EEB3E00E94E02CA5019401261B370BDD
:100E8000480B590BCA01B9012AE030E040E050E0BC
:100E90000E94EB2C890188E791E0288739874A87EF
:100EA0005B870E94CC0AC6010E94870C83E791E011
:100EB0000E94CC0A288539850A30110530F480E873
:100EC00091E00E94CC0A39852885C9010E94870CCF
:100ED00082E891E00E94CC0A1092A4018091A401C2
:100EE000811105C00E94BD0F8093A401F7CF84300B
:100EF00019F42092C101B6CD833059F40E94D60B6B
:100F000031E0331210C386E492E00E94B50B8AE010
:100F1000382E8091A401813021F48091C101830D8C
:100F200006C0823009F060CF8091C101831980939F
:100F3000C1015ACFE090DC01F090DD018BE992E035
:100F40000E94B50B01E010E00E9462138091DC0169
:100F50009091DD010E94870C1092A4018091A40160
:100F6000811105C00E94BD0F8093A401F7CF84308A
:100F700029F4F092DD01E092DC0174CD833059F563
:100F80000E94D60B0130110539F48AE892E00E94E4
:100F9000B50B0AE010E01FC00A30110539F489E7EB
:100FA00092E00E94B50B04E610E015C0043611056E
:100FB00039F488E692E00E94B50B08EE13E00BC00E
:100FC000083E43E0140739F46091DC017091DD01C3
:100FD00081E090E03FC18091A401813039F480919B
:100FE000DC019091DD01800F911F09C0823009F072
:100FF000ABCF8091DC019091DD01801B910B909330
:10100000DD018093DC01A0CF1091A7018CEA92E072
:101010000E94B50B0E9462138091A7010E94AE0B43
:1010200089E891E00E94CC0A1092A4018091A40169
:10103000811105C00E94BD0F8093A401F7CF8430B9
:1010400019F41093A7010ECD833029F46091A70104
:1010500087E090E06CC2813021F48091A7018F5F1E
:1010600005C08230B9F68091A70181508093A70115
:10107000D1CF1091C0018DEB92E00E94B50B09E039
:101080000E9462138091C0010E94AE0B1092A401D5
:101090008091A401811105C00E94BD0F8093A4011D
:1010A000F7CF843019F41093C001DCCC833029F4DD
:1010B0006091C00188E090E03AC2813051F48091A3
:1010C000C001883010F01092C0018091C0018F5F84
:1010D0000BC08230A9F68091C001823010F40093D9
:1010E000C0018091C00181508093C001C9CF209080
:1010F000BE013090BF0180EF92E00E94B50B01E08D
:1011000010E00E946213C090BE01D090BF01E12C9C
:10111000F12CEFEF21E030E040E050E0AAE0B0E059
:101120000E94E02C9B01AC01E150C1F7A5E0B0E0CA
:101130000E94E02C6C0D7D1D8E1D9F1D24E630E06D
:1011400040E050E00E94EB2CC9010E94870C83E72D
:1011500091E00E94CC0AC090BE01D090BF01E12C6A
:10116000F12CEFEF21E030E040E050E0AAE0B0E009
:101170000E94E02C9B01AC01E150C1F7A5E0B0E07A
:101180000E94E02C4B015C018C0C9D1CAE1CBF1C12
:10119000EFEF21E030E040E050E0AAE0B0E00E9454
:1011A000E02C9B01AC01E150C1F7A5E0B0E00E944A
:1011B000E02C6C0D7D1D8E1D9F1D24E630E040E06F
:1011C00050E00E94EB2C44275527A4E6B0E00E9493
:1011D000E02C861A970AA80AB90A59E0581520F097
:1011E00080E891E00E94CC0A882D0E94AE0B1092FC
:1011F000A4018091A401811105C00E94BD0F8093BC
:10120000A401F7CF843029F43092BF012092BE01AF
:1012100029CC833011F50E94D60B0130110539F429
:101220008FED92E00E94B50B0AE010E016C00A3084
:10123000110539F48EEC92E00E94B50B04E610E043
:101240000CC00436110549F46091BE017091BF01D4
:1012500089E290E00E94C91005CC8091A401813000
:1012600039F48091BE019091BF01800F911F09C098
:10127000823009F046CF8091BE019091BF01801B62
:10128000910B9093BF018093BE013BCF0E948C12C3
:10129000E9CB4091E2015091E3016091E40170914A
:1012A000E5018091BA019091BB01A091BC01B09180
:1012B000BD01840F951FA61FB71F8093E201909375
:1012C000E301A093E401B093E5014091DE01509168
:1012D000DF016091E0017091E1018091B601909190
:1012E000B701A091B801B091B901840F951FA61F55
:1012F000B71F8093DE019093DF01A093E001B093CC
:10130000E1012091D0013091D1014091D201509161
:10131000D3016091D4017091D5018091D601909153
:10132000D701A090AE01B090AF01C090B001D090B5
:10133000B101E090B201F090B3010091B4011091BD
:10134000B5010E94C5302093D0013093D101409364
:10135000D2015093D3016093D4017093D50180934F
:10136000D6019093D7010E9439120E94EC047ACBE7
:1013700000919A0110919B0181E093E00E94B50BCE
:101380000E9462130E94920F0E946C0F6091AC0148
:101390007091AD01CB01A0E0B0E0BC01CD016B5F6D
:1013A0007F4F8F4F9F4FA30192010E94EB2CC901E9
:1013B0000E94870C83E791E00E94CC0A6091AC0107
:1013C0007091AD01CB01A0E0B0E06C017D01E5E0E2
:1013D000CE0ED11CE11CF11CC701B601A301920184
:1013E0000E94EB2CA8EEB3E00E94E02CA70196012E
:1013F000261B370B480B590BCA01B9012AE030E014
:1014000040E050E00E94EB2CC9010E94870C85E966
:1014100091E00E94CC0A87E991E00E94CC0A809179
:101420009A0190919B010E94870C1092A4018091D7
:10143000A401811105C00E94BD0F8093A401F7CFC4
:10144000843029F410939B0100939A010BCB8330D5
:1014500039F460919A0170919B0182E390E0FACE99
:10146000813031F480919A0190919B01059608C0DA
:10147000823009F085CF80919A0190919B01059768
:1014800090939B0180939A017BCFE090A801F0900C
:10149000A90184E293E00E94B50B11E00E9462135F
:1014A0008091A8019091A9010E94870C88E791E0A2
:1014B0000E94CC0A82E891E00E94CC0A1092A4011A
:1014C0008091A401811105C00E94BD0F8093A401E9
:1014D000F7CF843029F4F092A901E092A801C2CAA2
:1014E000833049F40E94D60B113021F583E193E05B
:1014F0000E94B50B1AE08091A401813039F48091EB
:10150000A8019091A901810F911D08C0823031F688
:101510008091A8019091A901811B91099093A90143
:101520008093A801BBCF6091C10180E090E00E9450
:10153000E80498CA6091A8017091A90184E390E041
:1015400089CE2B960FB6F894DEBF0FBECDBFDF91CC
:10155000CF911F910F91FF90EF90DF90CF90BF90B0
:10156000AF909F908F907F906F905F904F903F9043
:101570002F900895009769F0FC0101900020E9F791
:101580003197AF01481B590BBC0186EB92E00C94DC
:101590004C1580E090E008950C94BA0A2091A902BD
:1015A0009091A802213208F04AC0809185028111F1
:1015B000FCCF32E03093850231E0309384023FEF7C
:1015C000309383021092820220938102A8E8B2E055
:1015D00041E652E0FA013E2F341B321718F43D91D8
:1015E0003193F9CF1092600220916002990F922BF3
:1015F0009093600290915F02913061F410925F02CB
:10160000909160029093BB009091BC0093FDF8CF45
:1016100095EC01C095EE9093BC00909185029230BC
:10162000E1F3909183029F3F79F0809183028032B1
:1016300041F080918302803331F084E005C081E085
:1016400003C082E001C083E0109287021092A902D9
:10165000109286020895682F8AEA92E00C9454163C
:10166000CF93C82F682F607F86EB92E00E942B18E3
:1016700080E1C89FB001112486EB92E0CF910C94D9
:101680002B18CF93DF93CDB7DEB728970FB6F8941A
:10169000DEBF0FBECDBF98E0E7E4F1E0DE011196BA
:1016A00001900D929A95E1F79091BE02961710F471
:1016B0006FEF690FFE013196E60FF11DE60FF11D88
:1016C0009081890F806828960FB6F894DEBF0FBE10
:1016D000CDBFDF91CF910C94300B8F929F92AF9240
:1016E000BF920F931F93CF93DF93CDB7DEB7A19730
:1016F0000FB6F894DEBF0FBECDBF19A2423008F47A
:101700004AE08E010F5D1F4F842E912CA12CB12C2D
:10171000A50194010E94EB2CE62FB901CA010150EA
:101720001109EA3014F4E05D01C0E95CD801EC93E2
:10173000232B242B252B61F7C8010E94BA0AA196FE
:101740000FB6F894DEBF0FBECDBFDF91CF911F91D2
:101750000F91BF90AF909F908F900895682F70E089
:1017600080E090E04AE00C946D0B0F931F93CF93B1
:10177000DF938C01C0E0D0E0F801EC0FFD1F649115
:10178000662371F0E091B602F091B7020190F0810A
:10179000E02D86EB92E00995892B11F02196ECCF94
:1017A000CE01DF91CF911F910F91089581E00E94AA
:1017B000300B8BE39FE10197F1F78091BF02882303
:1017C00021F060E080E00C94410B0895EF92FF92CD
:1017D0000F931F93CF93DF9300D0CDB7DEB7877001
:1017E00028E0829FC0011124806469837A830E946B
:1017F000300B6981E62E7A81F72E8701085F1F4F33
:10180000F70161917F0186EB92E00E944418E01697
:10181000F106B1F70F900F90DF91CF911F910F91CB
:10182000FF90EF90089510925E0210925D02109268
:1018300087021092A9021092850281E080938402AF
:1018400010925F0261E082E10E94B21661E083E1E2
:101850000E94B216E9EBF0E080818E7F8083808168
:101860008D7F808388E48093B80085E48093BC00FA
:101870000895E091B602F091B7020190F081E02D59
:10188000682F86EB92E00994CF93DF93CDB7DEB754
:1018900028970FB6F894DEBF0FBECDBF48E050E0EA
:1018A000BC01CE0101960E94912C89818F3FA9F441
:1018B0008A818F3F91F48B818F3F79F48C818F3FA8
:1018C00061F48D818F3F49F48E818F3F31F48F8198
:1018D0008F3F19F488858F3F49F029813A814B81E8
:1018E0005C816D817E818F81988508C020E030E029
:1018F00040E050E060E070E080E090E028960FB6B5
:10190000F894DEBF0FBECDBFDF91CF910895BC012B
:1019100080E090E04AE00C946D0BCF92DF92EF9262
:10192000FF92CF93DF936C01990FEE08FF08F7FE4B
:1019300017C08DE20E94390CEC0166277727CB0196
:101940006C197D098E099F094AE00E946D0B8C0F6E
:101950009D1FDF91CF91FF90EF90DF90CF90089582
:101960004AE0C701B601DF91CF91FF90EF90DF9081
:10197000CF900C946D0B81E08093860288E6809373
:10198000A802109287021092A9026EE08AEA92E001
:101990000E94541664E08AEA92E00E9454160C9465
:1019A000CE0A909185029111FCCF813208F080E23D
:1019B00091E090938502909384022FEF209383020D
:1019C00010928202280F20938102909360029091DE
:1019D0006002906D9093600290915F02913061F48B
:1019E00010925F02909160029093BB009091BC00B6
:1019F00093FDF8CF95EC01C095EE9093BC009091CB
:101A000085029130E1F390918202981710F4809151
:101A10008202A1E6B2E02DE332E0F9019E2F921B93
:101A2000981718F49D919193F9CF10925E028093CC
:101A30005D020895EF92FF920F931F93CF93DF9370
:101A4000CDB7DEB727970FB6F894DEBF0FBECDBF78
:101A500081E08093860288E68093A8021092870234
:101A60001092A90280E090E00E942B0B0E94CE0A07
:101A700087E090E00E94D10CCE0101967C0100E04D
:101A800010E08AEA92E00E940816982F9F701530A5
:101A900079F484FB222720F9220F322F330F330FE2
:101AA000230F920F9E83082F001F0027001F08C0DE
:101AB00082958F70EAE08E9F900D1124F70190833C
:101AC0001F5FFFEFEF1AFF0A1730D9F62F81822F21
:101AD00090E0013019F48053984F02C08459984F18
:101AE0003981309332023A81309333023B81309313
:101AF00034023D81309335023E813093360290931B
:101B00003802809337028C818093390220933C0203
:101B100027960FB6F894DEBF0FBECDBFDF91CF91F1
:101B20001F910F91FF90EF9008958F929F92AF9227
:101B3000BF92CF92DF92EF92FF92CF93DF9380918B
:101B4000C9029091CA020E94B20440E06CEC8091FC
:101B5000C9029091CA020E9496194091C30264E49E
:101B60008091C9029091CA020E9496198091C50283
:101B7000882309F445C0E091C402E950E33040F401
:101B8000F0E0EE0FFF1FE15BFE4FC081D18102C08C
:101B9000CEEED2E08091C602882311F18091C3027B
:101BA00081111EC00E9475174B015C016E01DD0F93
:101BB000EE08FF088091C9029091CA020E94051A9E
:101BC0008130F1F00E947517DC01CB018C199D0961
:101BD000AE09BF0988159905AA05BB0558F310C0C1
:101BE000BE01DD0F880B990BDF91CF91FF90EF9035
:101BF000DF90CF90BF90AF909F908F900C943B1749
:101C0000DF91CF91FF90EF90DF90CF90BF90AF909A
:101C10009F908F900895AF92BF92CF92DF92EF92F4
:101C2000FF920F931F93CF93DF931F92CDB7DEB731
:101C30005C01D62EE72EFC018585811105C0C5010A
:101C40000E94B204811106C0F50113861586148620
:101C500080E065C040E060EFC5010E94961901E098
:101C6000F12CC12C11E0C5010E94051A682FC50195
:101C700069830E94051A6981613019F48130B9F4D1
:101C800033C04F2D50E068131BC0F5018385181732
:101C900030F4E40FF51F8381802349F402C0181744
:101CA00031F060E0193058F4F501148708C0F501EF
:101CB000EF0DF11D8381802B838361E009C0C12E6C
:101CC000F501E40FF51F9381802F8095892383838D
:101CD000C5010E9483041F5F000F11F4F39401E01B
:101CE000F7E0FF1508F0BFCF113408F4ADCFF501D0
:101CF000C386C11002C081E08587F50183818823F6
:101D000009F4A2CFD5011396ED2DFE2D9501255F87
:101D10003F4F8D918193A217B307D9F781E00F90C0
:101D2000DF91CF911F910F91FF90EF90DF90CF90B7
:101D3000BF90AF900895AF92BF92CF92DF92EF9293
:101D4000FF920F931F93CF93DF938B01BC01809180
:101D5000C9029091CA020E94D81940E06EEB8091AE
:101D6000C9029091CA020E949619E801680189E0AF
:101D7000C80ED11CA090C902B090CA0288E0E82E1B
:101D8000F12C01E010E0C5010E94051A8111102B11
:101D9000000F81E0E81AF108B1F71993CC15DD05C1
:101DA00049F78091C9029091CA020E94B20491E061
:101DB000813009F090E0892FDF91CF911F910F9131
:101DC000FF90EF90DF90CF90BF90AF9008950F936A
:101DD0001F93CF93DF93CDB7DEB729970FB6F89453
:101DE000DEBF0FBECDBFFC012081203161F18C012F
:101DF0008091C9029091CA020E94B204882309F11D
:101E0000BE016F5F7F4FC8010E949B0E8823C9F0FF
:101E100068E0CE0101960E9489199985891311C045
:101E20008D818F3361F020F48F3159F489E00CC03B
:101E30008F3519F08F3739F004C08BE005C08AE088
:101E400003C080E001C08CE029960FB6F894DEBF95
:101E50000FBECDBFDF91CF911F910F9108950F93CA
:101E60001F93CF93DF938C01D62FE091C902F0919D
:101E7000CA02138615861486DF011B9633961E92BE
:101E8000AE17BF07E1F7C0E0B8018091C902909199
:101E9000CA020E940B0E811102C080E010C0CD1357
:101EA0000AC067E0C8010E948919F8019781891367
:101EB00002C081E004C0CF5FDC1778F3E5CFDF918B
:101EC000CF911F910F910895E99885EC95E190933A
:101ED0000401809303010895CF93DF9383E08093FF
:101EE000000162E070E080E090E00E943B178EE02D
:101EF0000E941E17C0919A01D0919B018EE00E9412
:101F00001E179E01DC010E94A42F2FEF33E040E05A
:101F100050E00E94C12C3093AD012093AC01DF91C1
:101F2000CF9108958EE480937C0062E070E080E0C1
:101F300090E00E943B1780917A00806480937A0041
:101F400080917A0086FDFCCF2091780030E03093BC
:101F5000AB012093AA0180917900382B032E000C4D
:101F6000440B550B60E070E381E190E00E94C12CCE
:101F70003093AB012093AA010895CF92DF92EF92A4
:101F8000FF920F931F93CF93DF930E9475176B01FE
:101F90007C0187E00E948916D1E0892B09F0D0E00E
:101FA00088E00E948916C1E0892B09F0C0E0DD239A
:101FB00029F08C2F90E001E010E01EC0CC2309F442
:101FC00053C081E090E000E010E016C0892BB9F02A
:101FD00087E00E94891631E020E0892B09F030E08B
:101FE000032F122F88E00E94891631E020E0892B10
:101FF00009F030E0832F922F012B41F3E9CF0E94AB
:102000007517DC01CB018C199D09AE09BF09883E0B
:1020100023E09207A105B105C0F44E97A105B105D3
:1020200010F1DD2341F06EE170E080E090E00E946D
:102030003B1781E01AC0CC23B1F06EE170E080E084
:1020400090E00E943B1782E010C06EE170E080E0FB
:1020500090E0CC2321F00E943B1784E006C00E9450
:102060003B1783E002C002C080E090E0DF91CF9197
:102070001F910F91FF90EF90DF90CF900895CF9236
:10208000DF92EF92FF920F931F93CF936B017C012E
:10209000CB010E94EA04182FC60101960E94EA04AF
:1020A000C82FC60102960E94EA04082FC6010396B3
:1020B0000E94EA044C2F50E060E070E0762F652F1C
:1020C000542F4427410F511D611D711D10E020E068
:1020D00030E0980111270027400F511F621F731F26
:1020E00090E0A0E0B0E0B82FAA27992788278A01BE
:1020F0009B01080F191F2A1F3B1FC901B801CF916F
:102100001F910F91FF90EF90DF90CF900895CF92A5
:10211000DF92EF92FF92CF93DF93EC016A017B0194
:10212000642F0E94E8049927F7FC9A958F2D7E2D45
:102130006D2DCE0101960E94E804B701992777FD25
:102140009095892FCE0102960E94E8046F2D772783
:1021500088279927CE010396DF91CF91FF90EF90CA
:10216000DF90CF900C94E8041F93CF93DF93EC01A2
:102170000E94EA04182FCE0101960E94EA04282F3B
:1021800030E0922F8827810F911DDF91CF911F9111
:1021900008950F931F93CF93DF931F92CDB7DEB7B0
:1021A0008C0179830E94E8047981672FC801019628
:1021B0000F90DF91CF911F910F910C94E804FF9243
:1021C0000F931F93CF93DF9369E070E080E090E07E
:1021D0000E943F106093E2017093E3018093E40159
:1021E0009093E5016DE070E080E090E00E943F1088
:1021F0006093DE017093DF018093E0019093E10131
:1022000081E190E00E94440C2093D0013093D101F1
:102210004093D2015093D3016093D4017093D501C0
:102220008093D6019093D70169E170E080E090E05F
:102230000E943F106093BA017093BB018093BC0170
:102240009093BD016DE170E080E090E00E943F104E
:102250006093B6017093B7018093B8019093B90170
:1022600081E290E00E94440CF22E032F142FD52F10
:10227000C62FB72FF82FE92F2093AE013093AF016F
:102280004093B0015093B1016093B2017093B301D8
:102290008093B4019093B5014091E2015091E30124
:1022A0006091E4017091E5014F3F5F4F6F4F7F4FA9
:1022B00041F41092E2011092E3011092E4011092B5
:1022C000E5014091DE015091DF016091E0017091E4
:1022D000E1014F3F5F4F6F4F7F4F41F41092DE019E
:1022E0001092DF011092E0011092E1012091D001E3
:1022F0003091D1014091D2015091D3016091D4012C
:102300007091D5018091D6019091D701AFEF0E94D5
:10231000D73081F41092D0011092D1011092D201E5
:102320001092D3011092D4011092D5011092D601CF
:102330001092D7014091BA015091BB016091BC014C
:102340007091BD014F3F5F4F6F4F7F4F41F410922F
:10235000BA011092BB011092BC011092BD014091D4
:10236000B6015091B7016091B8017091B9014F3F2A
:102370005F4F6F4F7F4F41F41092B6011092B7013B
:102380001092B8011092B9012F2D302F412F5D2FDF
:102390006C2F7B2F8F2F9E2FAFEF0E94D73081F4B1
:1023A0001092AE011092AF011092B0011092B101E3
:1023B0001092B2011092B3011092B4011092B501C3
:1023C000DF91CF911F910F91FF900895CF93DF93ED
:1023D000CDB7DEB728970FB6F894DEBF0FBECDBFDE
:1023E0004091BA015091BB016091BC017091BD0157
:1023F00089E190E00E9487104091B6015091B701A9
:102400006091B8017091B9018DE190E00E94871050
:102410008091AE0189838091AF018A838091B00160
:102420008B838091B1018C838091B2018D838091E7
:10243000B3018E838091B4018F838091B501888729
:1024400048E050E061E270E0CE0101960E94A92CC4
:102450006091A8017091A90184E390E00E94C910E5
:1024600028960FB6F894DEBF0FBECDBFDF91CF9197
:102470000895CF93DF93CDB7DEB728970FB6F894C2
:10248000DEBF0FBECDBF4091E2015091E3016091EC
:10249000E4017091E50189E090E00E94871040918D
:1024A000DE015091DF016091E0017091E1018DE06A
:1024B00090E00E9487107091D0016091D1015091FD
:1024C000D2014091D3013091D4012091D501909156
:1024D000D6018091D70179836A835B834C833D83E6
:1024E0002E839F83888748E050E061E170E0CE0151
:1024F00001960E94A92C6091A8017091A90184E322
:1025000090E00E94C91028960FB6F894DEBF0FBE67
:10251000CDBFDF91CF910895AF92BF92CF92DF925E
:10252000EF92FF920F931F938091E2019091E3014C
:10253000A091E401B091E5014091BA015091BB0135
:102540006091BC017091BD01840F951FA61FB71F3C
:102550008093BA019093BB01A093BC01B093BD01DD
:102560008091DE019091DF01A091E001B091E10145
:102570004091B6015091B7016091B8017091B901D5
:10258000840F951FA61FB71F8093B6019093B701C4
:10259000A093B801B093B9012091D0013091D1013D
:1025A0004091D2015091D3016091D4017091D50135
:1025B0008091D6019091D701A090AE01B090AF016B
:1025C000C090B001D090B101E090B201F090B301A1
:1025D0000091B4011091B5010E94C5302093AE0165
:1025E0003093AF014093B0015093B1016093B201B9
:1025F0007093B3018093B4019093B5010E94E611EA
:102600001092E2011092E3011092E4011092E501B0
:102610001092DE011092DF011092E0011092E101B0
:102620001092C2011092C3011092C4011092C50110
:102630001092D0011092D1011092D2011092D301C8
:102640001092D4011092D5011092D6011092D701A8
:102650001092CF011092CE011092CD011092CC01B8
:102660001092DB011092DA011092D9011092D80178
:102670001092A3011092A2011092A1011092A00148
:1026800010929F0110929E011092CB011092CA01EC
:102690001092C7011092C6011092C9011092C80190
:1026A00010929D0110929C0110928500109284005E
:1026B0001F910F91FF90EF90DF90CF90BF90AF9060
:1026C0000C94391261E080E00E94410B89E194E0B2
:1026D0000E94B50B61E080E00C94410BCF93DF9337
:1026E00081E08093BF020E94130C1092BB02809184
:1026F000C102823018F098E09093BB028093BE0232
:1027000062E370E080E090E00E943B176091C202BB
:1027100086EB92E00E94191868EE73E080E090E08A
:102720000E943B1760E386EB92E00E942B18CBE4FB
:10273000D6E4CE010197F1F760E386EB92E00E94C8
:102740002B182197F1F760E386EB92E00E942B189B
:1027500083E592E00197F1F760E286EB92E00E9458
:102760002B188091BB0280620E94300B84E0809322
:10277000BC028CE00E94300B0E94D60B82E080935A
:10278000BD0286E00E94300B82E00E94300B8BE39A
:102790009FE10197F1F76FE371E081E00E94E60BA2
:1027A00067E371E082E00E94E60B6FE271E083E094
:1027B0000E94E60B67E271E084E00E94E60B6FE1A5
:1027C00071E085E00E94E60B67E171E086E00E941F
:1027D000E60B6FE071E087E00E94E60B67E071E0D6
:1027E00088E00E94E60BDF91CF910C94D60BCF933B
:1027F000C62F81111CC0633009F432C160E08C2FF8
:102800000E94410B62E086EB92E00E94441868E06F
:1028100086EB92E00E94441861E086EB92E00E9411
:10282000441861E08C2F0E94410B62E062C081304D
:1028300009F560E0C33071F08C2F0E94410B60E21B
:1028400086EB92E00E94441860E286EB92E00E94E0
:10285000441803C085E00E94410B61E086EB92E0E2
:102860000E94441861E0C33009F05FC085E00E9417
:10287000410B68C0823019F560E08C2F0E94410B3B
:1028800065E086EB92E00E94441863E086EB92E0FC
:102890000E94441861E086EB92E00E94441861E0D7
:1028A0008C2F0E94410B62E086EB92E00E9444185C
:1028B00066E086EB92E00E94441866E044C08330F4
:1028C000F1F460E08C2F0E94410B65E086EB92E012
:1028D0000E94441863E086EB92E00E94441861E095
:1028E00086EB92E00E94441861E08C2F0E94410B1D
:1028F00067E086EB92E00E94441866E01FC08430D7
:1029000039F560E08C2F0E94410B62E086EB92E08B
:102910000E94441866E086EB92E00E94441861E051
:1029200086EB92E00E94441861E08C2F0E94410BDC
:1029300060E286EB92E00E94441860E286EB92E04F
:102940000E94441861E086EB92E00E94441888C01F
:10295000853081F460E08C2F0E94410B62E086EBB1
:1029600092E00E94441863E086EB92E00E944418D3
:1029700064E05EC0863081F460E08C2F0E94410BE1
:1029800062E086EB92E00E94441863E086EB92E0FE
:102990000E94441864E031C08730F1F460E08C2F6D
:1029A0000E94410B62E086EB92E00E94441868E0CE
:1029B00086EB92E00E94441861E086EB92E00E9470
:1029C000441861E08C2F0E94410B60E286EB92E09C
:1029D0000E94441860E23AC08830C9F460E08C2F4D
:1029E0000E94410B62E086EB92E00E94441863E093
:1029F00086EB92E00E94441861E086EB92E00E9430
:102A0000441861E08C2F0E94410B62E01AC08930AB
:102A100039F560E08C2F0E94410B62E086EB92E07A
:102A20000E94441863E086EB92E00E94441861E043
:102A300086EB92E00E94441861E08C2F0E94410BCB
:102A400067E086EB92E00E94441866E086EB92E035
:102A50000E94441861E086EB92E0CF910C944418F8
:102A6000CF9108950F931F93CF93DF93D82F162FF5
:102A7000042F0E94410BC0E0C01731F0CF5F88E700
:102A800091E00E94CC0AF8CF612F8D2FDF91CF917A
:102A90001F910F910C94410BCF92DF92EF92FF9216
:102AA0000F931F93CF93DF936C017A018B01C0E0EA
:102AB000D0E0CE15DF0589F0D8016D918D01D601EA
:102AC000ED91FC910190F081E02DC6010995892BD3
:102AD00011F47E0102C02196ECCFC701DF91CF91A6
:102AE0001F910F91FF90EF90DF90CF90089583306A
:102AF00081F028F4813099F08230A1F00895873078
:102B0000A9F08830B9F08430D1F4809180008F7DB5
:102B100003C0809180008F7780938000089584B5F2
:102B20008F7702C084B58F7D84BD08958091B000F9
:102B30008F7703C08091B0008F7D8093B00008959F
:102B40003FB7F8948091310390913203A091330301
:102B5000B091340326B5A89B05C02F3F19F001960C
:102B6000A11DB11D3FBFBA2FA92F982F8827820F13
:102B7000911DA11DB11DBC01CD0142E0660F771F63
:102B8000881F991F4A95D1F70895089585ED809380
:102B9000BC008091BC0084FDFCCF1092850208959A
:102BA00040910703262F30E0240F311D21323105DB
:102BB000DCF4209185022430C9F4FC0180E090E02F
:102BC000861758F4309107032191DC01AB51BD4FBA
:102BD000A30FB11D2C930196F3CF80910703680FCB
:102BE0006093070380E0089581E0089582E00895EE
:102BF0000895E0915E0280915D02E81730F4F0E004
:102C0000E35CFD4F808190E008958FEF9FEF089582
:102C100090915E0280915D02981750F4E92FF0E0E8
:102C2000E35CFD4F208130E09F5F90935E0202C025
:102C30002FEF3FEFC901089580915D0290E0209150
:102C40005E02821B91090895CF92DF92EF92FF926C
:102C50000F931F93CF93DF937C01262F972F8A0129
:102C600080918602882391F0C62FD72F6E01C40E63
:102C7000D51ECC15DD0571F06991D701ED91FC9160
:102C80000190F081E02DC7010995F3CF642F822FC9
:102C90000E94D015C801DF91CF911F910F91FF9035
:102CA000EF90DF90CF900895CF93DF931F92CDB731
:102CB000DEB76983209186022223D1F02091A902F8
:102CC000203240F021E030E0FC013383228380E0B9
:102CD00090E015C080918702E82FF0E0E857FD4FA3
:102CE000998190838F5F809387028093A90205C0AA
:102CF00061E0CE0101960E94D01581E090E00F9036
:102D0000DF91CF910895089580E090E008950E94AA
:102D1000E330CF93DF93282F30E0F901E25CFA4FE4
:102D20008491F901EB5FFB4FD491F901EF50FC4F17
:102D3000C491CC2391F081110E947715EC2FF0E023
:102D4000EE0FFF1FE951FC4FA591B491EC91ED23DB
:102D500081E090E021F480E002C080E090E0DF912B
:102D6000CF9108951F93CF93DF93282F30E0F9017F
:102D7000E25CFA4F8491F901EB5FFB4FD491F901CA
:102D8000EF50FC4FC491CC23C9F0162F81110E9443
:102D90007715EC2FF0E0EE0FFF1FEC5CFA4FA591DA
:102DA000B4918FB7F894111105C09C91ED2FE09567
:102DB000E92302C0EC91ED2BEC938FBFDF91CF9113
:102DC0001F910895CF93DF9390E0FC01EB5FFB4FE1
:102DD0002491FC01EF50FC4F8491882361F190E035
:102DE000880F991FFC01E65DFA4FC591D491FC0153
:102DF000EC5CFA4FA591B491611109C09FB7F894AA
:102E00008881209582238883EC912E230BC0623029
:102E100061F49FB7F8943881822F8095832388834B
:102E2000EC912E2B2C939FBF06C08FB7F894E881AE
:102E30002E2B28838FBFDF91CF9108958E3008F01D
:102E40008E5087702091000190E4299F90011124F9
:102E5000822B80937C0080917A00806480937A003A
:102E600080917A0086FDFCCF8091780020917900D6
:102E700090E0922B08958F929F92AF92BF92CF9243
:102E8000DF92EF92FF926B017C010E94A0154B0133
:102E90005C01C114D104E104F104F1F00E94A01519
:102EA000DC01CB0188199909AA09BB09883E934026
:102EB000A105B10570F321E0C21AD108E108F108BB
:102EC00088EE880E83E0981EA11CB11CC114D104A9
:102ED000E104F10419F7DDCFFF90EF90DF90CF9080
:102EE000BF90AF909F908F9008952FB7F894609106
:102EF0002D0370912E0380912F03909130032FBFEB
:102F000008951F920F920FB60F9211242F933F93A3
:102F10008F939F93AF93BF9380912D0390912E0336
:102F2000A0912F03B091300330912C0323E0230FA5
:102F30002D3720F40196A11DB11D05C026E8230FF1
:102F40000296A11DB11D20932C0380932D03909315
:102F50002E03A0932F03B0933003809131039091FF
:102F60003203A0913303B09134030196A11DB11D2A
:102F70008093310390933203A0933303B0933403CF
:102F8000BF91AF919F918F913F912F910F900FBE65
:102F90000F901F9018951F920F920FB60F92112449
:102FA0002F933F934F935F936F937F938F939F9351
:102FB000AF93BF93EF93FF93E0910301F09104016E
:102FC0000995FF91EF91BF91AF919F918F917F9163
:102FD0006F915F914F913F912F910F900FBE0F9086
:102FE0001F9018951F920F920FB60F9211242F93D6
:102FF0003F934F935F936F937F938F939F93AF9381
:10300000BF93EF93FF93E0910101F09102010995C5
:10301000FF91EF91BF91AF919F918F917F916F91B0
:103020005F914F913F912F910F900FBE0F901F9086
:103030001895FC01848191E0909386028093A80208
:10304000109287021092A9028485862B90E00E943C
:103050002B0B0C94CE0A0F931F93CF938C01C62F8A
:103060000E9419186C2F6460C8010E9419186C2FF7
:103070006B7FC8010E94191883EC90E00197F1F76B
:10308000CF911F910F9108950F931F93CF938C01B0
:10309000C62F607F61600E942B1880E1C89FB0013D
:1030A00011246160C8010E942B1881E090E0CF914B
:1030B0001F910F9108951F920F920FB60F92112436
:1030C0002F933F934F935F936F937F938F939F9330
:1030D000AF93BF93EF93FF938091B900887F8036C1
:1030E00009F49CC068F5883209F45BC090F4803123
:1030F00009F454C038F4882309F4F6C0883009F480
:103100004DC0F6C0883109F44CC0803209F45DC06E
:10311000EFC0803409F468C048F4803309F455C026
:10312000883309F0E5C080938302D8C0803509F464
:103130004FC0883509F45DC0883409F0D9C0D6C0C5
:10314000883909F4C7C0A8F4883709F467C038F48F
:10315000883609F463C0803709F460C0C9C0883874
:1031600009F4B8C0803909F45FC0803809F0C0C0E4
:103170005BC0803B09F486C038F4803A09F466C02D
:10318000883A09F47FC0B4C0803C09F4A7C0883CE9
:1031900009F4A4C0883B09F48AC0AAC080916002E7
:1031A00010C09091820280918102981770F5E09191
:1031B000820281E08E0F80938202F0E0EF59FD4F92
:1031C00080818093BB0085EC86C0809383028EC093
:1031D000E091820281E08E0F809382028091BB0099
:1031E000F0E0EF59FD4F808390918202809181023F
:1031F0006EC0E091820281E08E0F80938202809106
:10320000BB00F0E0EF59FD4F808380918402811173
:103210006DC081E080935F0284EA61C083E08093A7
:10322000850210922B03CFCF80912B03803208F0C0
:1032300051C0E0912B0381E08E0F80932B0380918E
:10324000BB00F0E0E55FFC4F8083BDCF85EC809351
:10325000BC001092850280912B03803230F4E09103
:103260002B03F0E0E55FFC4F108260912B0370E0D0
:10327000E0910903F0910A038BE093E00995109225
:103280002B0336C084E080938502109208031092CD
:103290000703E0910503F091060309958091070368
:1032A000811105C081E0809307031092E502E0914F
:1032B000080381E08E0F80930803F0E0EB51FD4F8F
:1032C00080818093BB009091080380910703981739
:1032D00008F479CF85E88093BC000AC085EC809320
:1032E000BC001092850204C0109283020E94C61591
:1032F000FF91EF91BF91AF919F918F917F916F91CE
:103300005F914F913F912F910F900FBE0F901F90A3
:103310001895DC01E0E0615038F08D91E827F0E08D
:10332000E65DFB4FE491F7CF8E2F0895CF92DF92A9
:10333000EF92FF920F931F93CF93DF931F92CDB71E
:10334000DEB76C01E62E08E010E0FF24F39461E0A4
:103350008F2D8E2109F460E0C60149830E94830409
:10336000FF0C0150110949810115110581F7411127
:1033700015C0F894D6011196ED91FC9112979181A8
:103380008C918095892381831196ED91FC91129700
:1033900092818C9180958923828378940F90DF911C
:1033A000CF911F910F91FF90EF90DF90CF900895F4
:1033B000CF92DF92EF92FF920F931F93CF93DF9301
:1033C0001F92CDB7DEB78C01F62E40E065E579831C
:1033D0000E949619CF2C7981D72E760188E0E80ECD
:1033E000F11CF60161916F0140E0C8010E9496193D
:1033F000CE14DF04B1F70F90DF91CF911F910F91A1
:10340000FF90EF90DF90CF900895FC0190810180B4
:10341000F281E02DF8948181892B81832281892F8B
:10342000809528232283A7E0B0E01197F1F721814E
:1034300082238183A3E2B0E01197F1F78081789431
:10344000EFECF0E03197F1F7982381E009F480E0A8
:103450000895CF93DF93CDB7DEB761970FB6F89499
:10346000DEBF0FBECDBF682FCE010A960E942F0F80
:10347000811105C060E070E08EEF92EC5CC080913D
:10348000C9029091CA020E94B204882309F450C074
:10349000BE016F5F7F4FCE010A960E949B0E88236C
:1034A00009F446C068E0CE0101960E948919998509
:1034B00089133EC0698148E0649FB00111248A816C
:1034C000282F30E0322F2227330F330F330F262BD4
:1034D000372B8A858031C9F4688570E08F81AB0114
:1034E000481B5109CA019695982F8827979587956B
:1034F0000E948A2F60517109207F53E0220F331FF1
:103500005A95E1F7620F731F01C0B901613854EE9B
:1035100075070CF4AFCF072E000C880B990B0E9497
:10352000382E20E030E040E05CE30E94ED2E03C046
:1035300060E874EEEBCF61960FB6F894DEBF0FBE75
:10354000CDBFDF91CF910895CF93DF93CDB7DEB795
:10355000AA970FB6F894DEBF0FBECDBF789484B59E
:10356000826084BD84B5816084BD85B5826085BD7F
:1035700085B5816085BD80916E00816080936E000D
:1035800010928100809181008260809381008091FF
:1035900081008160809381008091800081608093B0
:1035A00080008091B10084608093B1008091B00070
:1035B00081608093B00080917A00846080937A006B
:1035C00080917A00826080937A0080917A00816095
:1035D00080937A0080917A00806880937A001092BC
:1035E000C10060E082E00E94E21660E085E00E9497
:1035F000E21660E084E00E94E21662E087E00E944A
:10360000E21662E088E00E94E21660E083E00E9439
:10361000E21661E089E00E94E21661E08DE00E941E
:10362000E21680E090E00E94EA04182F8093C10126
:1036300081E090E00E94B4109093DD018093DC0162
:1036400087E090E00E94EA048093A70188E090E080
:103650000E94EA048093C00189E290E00E94B410C5
:103660009093BF018093BE0182E390E00E94B4106A
:1036700090939B0180939A0184E390E00E94B410A0
:103680009093A9018093A8011F3F41F484E880939F
:10369000C10164E880E090E00E94E8048091DC01D0
:1036A0009091DD01019661F488E893E19093DD014A
:1036B0008093DC0168E873E181E090E00E94C9102A
:1036C0008091A7018F3F41F48CE38093A7016CE3C5
:1036D00087E090E00E94E8048091C0018F3F41F4B0
:1036E00082E08093C00162E088E090E00E94E804FC
:1036F0008091BE019091BF01019661F482EC91E04E
:103700009093BF018093BE0162EC71E089E290E08A
:103710000E94C91080919A0190919B01019661F4D9
:1037200080E29EE490939B0180939A0160E27EE4A4
:1037300082E390E00E94C9108091A8019091A901B4
:10374000019651F41092A9011092A80160E070E076
:1037500084E390E00E94C9100E94DF1061E089E0DC
:103760000E94B2166AEF70E080E090E00E943B1782
:103770000E94130C0E94BB0CE091C902F091CA0296
:10378000138615861486DF011B9633961E92AE179C
:10379000BF07E1F71092C7021092C80211E0BE0104
:1037A0006F5F7F4F8091C9029091CA020E940B0EF9
:1037B000882309F45FC067E0CE0101960E94891951
:1037C00098858913ECCF8091C302811128C0809124
:1037D000C9029091CA020E94B204BE016F5F7F4F7E
:1037E0008091C9029091CA020E94D81940E064EB0E
:1037F0008091C9029091CA020E9496198091C902D3
:103800009091CA020E94051A082F8091C9029091D6
:10381000CA020E94B204002311F40C94232C0091DC
:10382000C402CE0101960E94E70E801718F4809121
:10383000C40204C0CE0101960E94E70E8093C40228
:103840008091C7028F5F8093C7028981883261F0BF
:1038500030F4803149F0823209F0A1CF05C08B33BA
:1038600019F0823409F09BCF8091C8028F5F80935A
:10387000C80295CF1092C5020E94950D0E946E134A
:10388000109280001092810010926F0010928500BB
:10389000109284008091810086608093810014BC26
:1038A000789483E08093000184ED92E0909302018C
:1038B00080930101809169008C7F82608093690010
:1038C000E89A38EE432E33E0532E612C712C83E0BE
:1038D0000E94891621E0892B09F020E02093300214
:1038E0002111B2C068E873E180E090E00E943B17CC
:1038F00083E00E94891621E0892B09F020E02093C3
:1039000030022111A1C00E9439120E94D60BE89802
:1039100045EC55E1509302014093010164E67FE0DC
:10392000709304016093030180916900837F809309
:103930006900E99A60E089E00E94B21660E08DE0DB
:103940000E94B21683B7817F846083BF80917A0022
:103950008093E60110927A00809164008F6E8093CC
:103960006400F89483B7816083BF80E685BF80E4FC
:1039700085BF7894889583B78E7F83BF80916400DC
:103980008071809364008091E60180937A0061E009
:1039900089E00E94B2166AEF70E080E090E00E9439
:1039A0003B170E94130C0E94BB0C0E946E1381E017
:1039B00090E09093A3018093A2011092A101109234
:1039C000A00110929F0110929E011092CB011092C3
:1039D000CA011092C7011092C6011092C90110923B
:1039E000C80110929D0110929C01109285001092C6
:1039F00084000E94DF102091DE013091DF014091B0
:103A0000E0015091E101A8EEB3E00E94E02C20918A
:103A1000DC013091DD0140E050E00E94EB2C20936E
:103A2000C2013093C3014093C4015093C50184ED9A
:103A300092E09093020180930101809169008C7F54
:103A4000826080936900E89A0E94BD0F7C0118167D
:103A500019060CF06FC380912F0271E0E716F10494
:103A600031F48F5F8B3078F010922F020EC092E00D
:103A7000E916F10451F4811103C08BE080932F0209
:103A800080912F02815080932F0280912F028830E5
:103A900009F030C3A4E0EA16F10409F0AEC16EE209
:103AA00070E080E090E00E943F106F3FBFEF7B0727
:103AB0008B079B0749F06093E7017093E8018093BF
:103AC000E9019093EA0108C01092E7011092E80121
:103AD0001092E9011092EA018091E7019091E801CA
:103AE000A091E901B091EA01892B8A2B8B2B09F473
:103AF00059C00E94D60B8CEF90E00E94B50B61E09C
:103B000080E00E94410B8091E7019091E801A09133
:103B1000E901B091EA01BC01CD016B5F7F4F8F4F8E
:103B20009F4FA30192010E94EB2CC9010E94870CB8
:103B300083E791E00E94CC0A8091E7019091E8012F
:103B4000A091E901B091EA014C015D01E5E08E0E22
:103B5000911CA11CB11CC501B401A30192010E94DA
:103B6000EB2C44275527A8EEB3E00E94E02C9501EA
:103B70008401061B170B280B390BC901B8012AE079
:103B800030E040E050E00E94EB2CC9010E94870C1D
:103B900085E791E00E94CC0A68E873E180E090E05C
:103BA0000E943B170E94D60B1092A4018091CA017B
:103BB0009091CB01892BA1F08BEE90E00E94B50B88
:103BC00061E080E00E94410B8AED90E00E94B50B1D
:103BD00007C00E94BD0F8093A401843009F48AC2FB
:103BE0008091CA019091CB01892B99F70E94D60B45
:103BF0008AEC90E00E94B50B61E080E00E94410BEE
:103C000089EB90E00E94B50B8091CA019091CB01A5
:103C1000892B39F40E94BD0F8093A4018430A1F751
:103C200069C260E080E00E94410B88EA90E00E9457
:103C3000B50B0E94751769877A878B879C87809060
:103C4000C2019090C301A090C401B090C5018091C1
:103C5000C2019091C301A091C401B091C50188191E
:103C60009909AA09BB0982399140A105B10508F05B
:103C700058C00E94751729853A854B855C85261B9F
:103C8000370B480B590BCA01B901A30192010E94DD
:103C9000EB2C20FF3EC060E080E00E94410B809151
:103CA000C2019091C301A091C401B091C501BC01B2
:103CB000CD01681979098A099B094AE00E946D0BB8
:103CC00087E791E00E94CC0A8091C2019091C301E4
:103CD000A091C401B091C501BC01CD016819790959
:103CE0008A099B090E94362E20E030E049EC53E41B
:103CF0000E948E2D20E030E048EC52E40E94ED2E30
:103D00000E94002ECB010E948D0C8AE791E00E9458
:103D1000CC0A0E94BD0F8093A401843009F097CF94
:103D2000E9C10E947517AB01BC01A984BA84CB8498
:103D3000DC844A195B096C097D094093E7015093C3
:103D4000E8016093E9017093EA018EE290E00E943D
:103D500087100E94D60B8091E7019091E801A09115
:103D6000E901B091EA01BC01CD016B5F7F4F8F4F3C
:103D70009F4FA30192010E94EB2CC9010E94870C66
:103D800083E791E00E94CC0A8091E7019091E801DD
:103D9000A091E901B091EA014C015D0105E0800EBE
:103DA000911CA11CB11CC501B401A30192010E9488
:103DB000EB2C44275527A8EEB3E00E94E02CA50188
:103DC0009401261B370B480B590BCA01B9012AE095
:103DD00030E040E050E00E94EB2CC9010E94870CCB
:103DE00085E791E00E94CC0A0E9462130E94BD0FF9
:103DF0008093A4018430D1F77DC133E0E316F10450
:103E000009F078C16AE270E080E090E00E943F1023
:103E10006F3F4FEF74078407940749F06093EB01FD
:103E20007093EC018093ED019093EE0108C0109225
:103E3000EB011092EC011092ED011092EE018091D5
:103E4000EB019091EC01A091ED01B091EE01892B75
:103E50008A2B8B2B09F459C00E94D60B84E691E083
:103E60000E94B50B61E080E00E94410B8091EB0164
:103E70009091EC01A091ED01B091EE01BC01CD015A
:103E80006B5F7F4F8F4F9F4FA30192010E94EB2CDE
:103E9000C9010E94870C83E791E00E94CC0A8091BF
:103EA000EB019091EC01A091ED01B091EE014C017C
:103EB0005D0155E0850E911CA11CB11CC501B4012A
:103EC000A30192010E94EB2C44275527A8EEB3E0F2
:103ED0000E94E02C95018401061B170B280B390B5F
:103EE000C901B8012AE030E040E050E00E94EB2C2C
:103EF000C9010E94870C85E791E00E94CC0A68E81E
:103F000073E180E090E00E943B170E94D60B109274
:103F1000A4018091CA019091CB01892BA1F083E586
:103F200091E00E94B50B61E080E00E94410B82E4C9
:103F300091E00E94B50B07C00E94BD0F8093A401C1
:103F4000843009F4D7C08091CA019091CB01892BAC
:103F500099F70E94D60B83E391E00E94B50B61E0D4
:103F600080E00E94410B82E291E00E94B50B8091BB
:103F7000CA019091CB01892B39F40E94BD0F809327
:103F8000A4018430A1F7B6C00E9475174B015C01F3
:103F900060E080E00E94410B81E191E00E94B50B5E
:103FA0008091CA019091CB018436910528F50E9439
:103FB0007517A5019401261B370B480B590BCA0135
:103FC000B901A30192010E94EB2C20FF0EC060E01A
:103FD00080E00E94410B8091CA019091CB010E9428
:103FE000870C8CE091E00E94B50B0E94BD0F80937E
:103FF000A4018430A9F67EC00E947517AB01BC01F4
:10400000481959096A097B094093EB015093EC0167
:104010006093ED017093EE0149A75AA76FA378A7AB
:104020000E94D60B49A55AA56FA178A58AE290E017
:104030000E9487106091EB017091EC018091ED017D
:104040009091EE014AE00E946D0B61E080E00E94D9
:10405000410B8091EB019091EC01A091ED01B091A9
:10406000EE01BC01CD016B5F7F4F8F4F9F4FA301CE
:1040700092010E94EB2CC9010E94870C83E791E01A
:104080000E94CC0A8091EB019091EC01A091ED018E
:10409000B091EE014C015D0135E0830E911CA11C35
:1040A000B11CC501B401A30192010E94EB2C44276D
:1040B0005527A8EEB3E00E94E02C95018401061B71
:1040C000170B280B390BC901B8012AE030E040E09A
:1040D00050E00E94EB2CC9010E94870C85E791E01B
:1040E0000E94CC0A0E9462130E94BD0F8093A4011B
:1040F0008430D1F780912F028A3091F414E0E116D8
:10410000F10441F40E948C120E94EC0484E080933C
:104110002F0206C023E0E216F10411F40E941205FA
:104120000E94D60B10922B0210922C0210922D029C
:1041300010922E020E94751700912B0210912C02F2
:1041400020912D0230912E02DC01CB01801B910BBE
:10415000A20BB30B893E9340A105B10510F40C945A
:10416000F12BC090E201D090E301E090E401F090E7
:10417000E5016091DE017091DF018091E001909195
:10418000E1014091DC015091DD015EA34DA328EED9
:1041900033E040E050E00E940430298B3A8B1A0152
:1041A0004B01F82FE92F8DA19EA1BC0180E090E08A
:1041B00069877A878B879C879B01AC01C701B60111
:1041C0000E945A2F8B019C015B016901E12CF12CAB
:1041D00000E010E029893A89A101B4018F2F9E2FB8
:1041E0000E9431303093DB012093DA012091DA0113
:1041F0003091DB0144E2429FC001439F900D1124A6
:104200006AE070E00E94762F7093D9016093D80124
:10421000A090E201B090E301C090E401D090E501EC
:10422000AF8AB88EC98EDA8EA090D001B090D1013D
:10423000C090D201D090D301E090D401F090D5018C
:10424000E091D6011091D7010091C101098B209115
:10425000C0012A8B9501A601B7018E2F912F04E092
:104260000E948E300E2F0E94CE30A988B12CC12C16
:10427000D12CE12CF12C00E010E00E94AB2FAA8899
:104280000E94AB2F19014B8F5B8B6BA37CA34C015E
:104290006F89788D898D9A8D20E030E140E050E083
:1042A0000E94043059016A017B018C0191014B8D00
:1042B0005B896BA17CA1C4010E9431303093CF0196
:1042C0002093CE01A090E201B090E301C090E40100
:1042D000D090E501AB8ABC8ACD8ADE8AC090DE012F
:1042E000D090DF01E090E001F090E101CF8AD88E1C
:1042F000E98EFA8E2091CE013091CF016DA17EA181
:10430000AB0160E070E080E090E0DC014B8F5C8FFF
:104310006D8F7E8F8F8F98A3A9A3BAA340E050E042
:1043200069857A858B859C850E940430CB88DC88E2
:10433000ED88FE8856016701E12CF12C8701A986E2
:10434000BA86CB86DC86ED86FE860F87188BE12C3D
:10435000F12C00E010E00E94AB2F29873B8B4A0133
:104360006BA37CA31C016F89788D898D9A8D24E2C3
:1043700030E040E050E00E94043059016A017B01C6
:104380008C0129853B89A4016BA17CA1C1010E94FC
:1043900031303093CD012093CC01E0912F028E2F4C
:1043A00090E08B30910510F00C94E72BFC01EC5C55
:1043B000FF4F0C949E2F0E941A0D81E0809386027D
:1043C00088E68093A802109287021092A90281E1E8
:1043D00090E00E942B0B0E94CE0A82E090E00E94A7
:1043E000D10C8AEA92E00E940816182F8AEA92E01D
:1043F0000E94081626E0959587952A95E1F7682F83
:1044000070E080E090E00E94382E20E030E040E84C
:104410005EE30E94ED2E6B017C01612F110F770B83
:10442000880B990B0E94382E9B01AC01C701B60185
:104430000E941D2D6B017C0120E030E0A9010E944B
:10444000E82E20E030E040E05FE318162CF4C701CE
:10445000B6010E941D2D04C0C701B6010E941C2D8B
:104460000E94002E70932902609328028091C70257
:10447000823008F451C061E0CE0101960E942F0FF6
:104480008091C9029091CA020E94051A813009F0F8
:1044900043C00E94291A6B017C0120E030E0A90191
:1044A0000E94892D811106C0C12CD12C8CE0E82EF0
:1044B00082ECF82E0E94950D20E030E040E752E4B7
:1044C000C701B6010E94892D87FF26C020E030E099
:1044D0004CE052ECC701B6010E94E82E1816E4F435
:1044E00020E030E0A901C701B6010E94E82E20E0DB
:1044F00030E040E05FE318162CF4C701B6010E94DB
:104500001D2D04C0C701B6010E941C2D0E94002E63
:1045100070932902609328028091C9029091CA0287
:104520000E94051A813009F044C080E00E94291AD7
:104530006B017C0120E030E0A9010E94892D8111EE
:1045400006C0C12CD12C0CE0E02E02ECF02E0E9413
:10455000950D20E030E040E752E4C701B6010E942B
:10456000892D87FF26C020E030E04CE052ECC701E7
:10457000B6010E94E82E1816E4F420E030E0A9010C
:10458000C701B6010E94E82E20E030E040E05FE382
:1045900018162CF4C701B6010E941D2D04C0C701D6
:1045A000B6010E941C2D0E94002E7093060160939C
:1045B0000501009134020A3080F0202F30E0802F76
:1045C0006AE00E946A2F092FC901801B91096AE0E5
:1045D00070E00E948A2FF62E01C0F12CE090330289
:1045E00019E0D12EDE1480F42E2D30E08E2D6AE0FD
:1045F0000E946A2FE92EC9018E1991096AE070E0C4
:104600000E948A2F162F01C010E043E060E080E096
:104610000E94321580912802909129020E948D0CEF
:10462000DD24D39422E0F21629F0D12C31E03F159D
:1046300058F007C08091280290912902873F9F4F30
:104640001CF08FED0E94390C43E061E080E00E9495
:10465000321580910501909106018E3D5FEF95071F
:104660002CF48CE791E00E94CC0A02C00E948D0CD1
:10467000DD2059F08091050190910601873F9F4F01
:1046800024F08FED0E94390C03C071E07F15C8F74C
:1046900063E08F2D0E94F71366E0802F0E94F713CE
:1046A0006AE0812F0E94F7136DE08E2D0E94F713B0
:1046B0000C94E72B43E060E080E00E94321580918B
:1046C000CA019091CB010E94870C60E085E00E94B6
:1046D000410B8FE192E00E94B50B44E061E080E085
:1046E0000E9432158091CA019091CB01069708F47F
:1046F0004FC06091C8017091C901CB01A0E0B0E04A
:10470000BC01CD016E5C7F4F8F4F9F4FA301920183
:104710000E94EB2CC9010E94870C83E791E00E9464
:10472000CC0AC090C801D090C9018091C801909175
:10473000C901E12CF12CA2E3CA0ED11CE11CF11C31
:10474000A0E0B0E0BC01CD016E5C7F4F8F4F9F4F6A
:10475000A30192010E94EB2CA8EEB3E00E94E02C92
:1047600097018601061B170B280B390BC901B801ED
:1047700024E630E040E050E00E94EB2CC9010E94AA
:10478000870C61E085E00E94410B87E192E0DEC783
:104790006091C6017091C701CB01A0E0B0E0BC01FF
:1047A000CD016E5C7F4F8F4F9F4FA30192010E94FE
:1047B000EB2CC9010E94870C83E791E00E94CC0A90
:1047C000C090C601D090C7018091C6019091C701E9
:1047D000E12CF12C12E3C10ED11CE11CF11CA0E074
:1047E000B0E0BC01CD016E5C7F4F8F4F9F4FA301A6
:1047F00092010E94EB2CA8EEB3E00E94E02CA701EE
:104800009601261B370B480B590BCA01B90124E648
:1048100030E040E050E00E94EB2CC9010E94870C80
:1048200061E085E00E94410B8FE092E08FC760E07D
:1048300080E00E94410B8BE092E00E94B50B44E0C7
:1048400060E084E00E9432158091D8019091D901F6
:104850000E94870C60E089E00E94410B86E092E0B4
:104860000E94B50B61E080E00E94410B82E092E083
:104870000E94B50B44E061E084E00E943215609133
:10488000CC017091CD01CB01A0E0B0E0BC01CD0125
:104890006E5C7F4F8F4F9F4FA30192010E94EB2CC4
:1048A000C9010E94870C83E791E00E94CC0AC09066
:1048B000CC01D090CD018091CC019091CD01E12C23
:1048C000F12C32E3C30ED11CE11CF11CA0E0B0E0DE
:1048D000BC01CD016E5C7F4F8F4F9F4FA3019201B2
:1048E0000E94EB2CA8EEB3E00E94E02C9701860119
:1048F000061B170B280B390BC901B80124E630E061
:1049000040E050E00E94EB2CC9010E94870C61E05E
:1049100089E00E94410B8AEF91E018C760E080E0D7
:104920000E94410B6091E2017091E3018091E401EA
:104930009091E50120E13EE040E050E00E94EB2C48
:10494000822F0E94AE0B8EE791E00E94CC0A60910C
:10495000E2017091E3018091E4019091E50120E191
:104960003EE040E050E00E94EB2C6835724081054B
:10497000910520F480E891E00E94CC0A6091E20168
:104980007091E3018091E4019091E50120E13EE026
:1049900040E050E00E94EB2C2CE330E040E050E09F
:1049A0000E94EB2C822F0E94AE0B8EE791E00E94BA
:1049B000CC0A6091E2017091E3018091E401909151
:1049C000E5012CE330E040E050E00E94EB2C6A303F
:1049D00071058105910520F480E891E00E94CC0AE0
:1049E0006091E2017091E3018091E4019091E50111
:1049F0002CE330E040E050E00E94EB2C862F0E9438
:104A0000AE0B61E080E00E94410B8091C201909169
:104A1000C301A091C401B091C501BC01CD016B5F80
:104A20007F4F8F4F9F4FA30192010E94EB2CC90132
:104A30000E94870C8091C2019091C301A091C40192
:104A4000B091C50180349244AF40B10508F048C030
:104A500083E791E00E94CC0AC090C201D090C301CC
:104A6000E090C401F090C5018091C2019091C30112
:104A7000A091C401B091C50135E0C30ED11CE11C69
:104A8000F11CBC01CD016B5F7F4F8F4F9F4FA30186
:104A900092010E94EB2C44275527A8EEB3E00E9418
:104AA000E02C97018601061B170B280B390BC90157
:104AB000B8012AE030E040E050E00E94EB2C309357
:104AC0002702209326022A30310520F480E891E065
:104AD0000E94CC0A80912602909127020E94870CA6
:104AE00086EF91E00E94B50B4091C1018091C00119
:104AF000A090D001B090D101C090D201D090D3014C
:104B0000E090D401F090D5010091D6011091D70129
:104B1000489FA0011124952F990F990B9A01492FB5
:104B2000592F692F792F892F0E94AB2FA12CB12CDF
:104B3000BFE0CB2ED12CE12CF12C00E010E00E9444
:104B40003130C901DA018093220290932302A093AD
:104B50002402B09325026C017D0115E0C10ED11C29
:104B6000E11CF11CC701B601A30192010E94EB2CCC
:104B7000C9012FA338A749A75AA70E94870C809183
:104B8000220290912302A0912402B09125022FA12C
:104B900038A549A55AA5803A9648A140B10558F5CF
:104BA00044275527A8EEB3E00E94E02C9701860128
:104BB000061B170B280B390BC901B8012AE030E09E
:104BC00040E050E00E94EB2C890183E791E02FA3A5
:104BD00038A749A75AA70E94CC0A2FA138A50A30A6
:104BE000110530F480E891E00E94CC0A38A52FA18D
:104BF000C9010E94870C82E891E097C560E080E0DF
:104C00000E94410BA090D001B090D101C090D20180
:104C1000D090D301E090D401F090D5010091D6015D
:104C20001091D70129893A89239FB0011124972F28
:104C3000990F990B9B01492F592F692F792F892F94
:104C40000E94AB2FA12CB12CAFE0CA2ED12CE12CAD
:104C5000F12C00E010E00E943130209322023093CA
:104C600023024093240250932502A091BE01B091EB
:104C7000BF010E94E02C60931E0270931F0280937C
:104C80002002909321026B017C0144EFC40E41E0AD
:104C9000D41EE11CF11CC701B60120EA36E841E050
:104CA00050E00E94EB2C60EA76E881E090E00E9400
:104CB0005A2F97018601061B170B280B390BC901C8
:104CC000B801A30192010E94EB2C20931D028FEEEC
:104CD00091E00E94B50B80911E0290911F02A0915D
:104CE0002002B0912102BC01CD016C507E4F8F4F4C
:104CF0009F4F20EA36E841E050E00E94EB2CC901CA
:104D00000E94870C83E791E00E94CC0A80911D02EB
:104D10008A3020F480E891E00E94CC0A80911D0244
:104D20000E94AE0B8BEE91E00E94B50B61E080E03B
:104D30000E94410BA091CC01B091CD012091BE0108
:104D40003091BF010E940D2D6093190270931A02D9
:104D500080931B0290931C026B017C0110E5C10E35
:104D600013ECD11EE11CF11CE7E021E030E040E053
:104D700050E0AAE0B0E00E94E02C9B01AC01E150C1
:104D8000C1F7C701B6010E94EB2C49015A01AA24C0
:104D9000BB24E7E021E030E040E050E0AAE0B0E0F2
:104DA0000E94E02C9B01AC01E150C1F7C501B401A8
:104DB0000E945A2FA7019601261B370B480B590B4F
:104DC000CA01B90120EA36E841E050E00E94EB2C2C
:104DD00020931D0286EE91E00E94B50BC09019024F
:104DE000D0901A02E0901B02F0901C0230E5C30E36
:104DF00033ECD31EE11CF11CE7E021E030E040E0A1
:104E000050E0AAE0B0E00E94E02C9B01AC01E15030
:104E1000C1F7C701B6010E94EB2CC9010E94870CA3
:104E200083E791E00E94CC0A80911D028A3020F431
:104E300080E891E00E94CC0A80911D020E94AE0B96
:104E400082EE91E083C44091E2015091E3016091D0
:104E5000E4017091E5018091BA019091BB01A091AC
:104E6000BC01B091BD015A016B01A80EB91ECA1E4A
:104E7000DB1EAF8AB88EC98EDA8EA0921502B09270
:104E80001602C0921702D0921802C090B601D090BC
:104E9000B701E090B801F090B901C986DA86EB86D7
:104EA000FC86E090C201F090C3010091C401109112
:104EB000C501EB8AFC8A0D8B1E8B69857A858B85F3
:104EC0009C8528EE33E040E050E00E940430AB8C3B
:104ED000BC8CC12CD12CE12CF12C00E010E00E9404
:104EE000313049015A018B899C89AD89BE89880D71
:104EF000991DAA1DBB1D8093110290931202A093CD
:104F00001302B09314022091D0013091D10140914D
:104F1000D2015091D3016091D4017091D50180915B
:104F2000D6019091D701A090AE01B090AF01C09092
:104F3000B001D090B101E090B201F090B3010091C6
:104F4000B4011091B5010E94C530922E832E4B8F73
:104F50005B8B6BA37CA3382E292E20930902309300
:104F60000A0240930B0250930C0260930D0270935F
:104F70000E0280930F02909310028091DE019091B7
:104F8000DF01A091E001B091E10109851A852B852F
:104F90003C85080F191F2A1F3B1F09871A872B877B
:104FA0003C8700930502109306022093070230937A
:104FB00008021989612F70E080E090E0AA892A2F09
:104FC00030E040E050E00E94043059016A017B016A
:104FD000E82F192F04E00E948E300E2F0E94CE3051
:104FE000A92CB82CCB8CDB88EBA0FCA0032D122DB8
:104FF0000E94AB2F1901498B5A8B6B8F7B8B4C0115
:105000006F89788D898D9A8D20E030E140E050E005
:105010000E94043059016A017B018C019101498988
:105020005A896B8D7B89C4010E9431305901C901B5
:10503000A0E0B0E08093010290930202A0930302EB
:10504000B0930402CDA0DEA0960140E050E06F894D
:10505000788D898D9A8D0E940430C12CD12CE12C41
:10506000F12C00E010E00E94AB2F1901498B5A8B04
:105070006DA37F8B4C0169857A858B859C8524E2A5
:1050800030E040E050E00E94043059016A017B01A9
:105090008C01910149895A896DA17F89C4010E94BF
:1050A0003130C901A0E0B0E08093FD019093FE0192
:1050B000A093FF01B093000260E080E00E94410BEA
:1050C0008DED91E00E94B50B609115027091160272
:1050D000809117029091180220E13EE040E050E0FC
:1050E0000E94EB2C822F0E94AE0B8EE791E00E9473
:1050F000CC0A60911502709116028091170290916E
:10510000180220E13EE040E050E00E94EB2C6835C0
:1051100072408105910520F480E891E00E94CC0A5C
:1051200060911502709116028091170290911802F9
:1051300020E13EE040E050E00E94EB2C2CE330E028
:1051400040E050E00E94EB2C822F0E94AE0B88E7DB
:1051500091E00E94CC0A8091FD019091FE01A09106
:10516000FF01B0910002BC01CD016E5C7F4F8F4FFB
:105170009F4FA30192010E94EB2CC9010E94870C52
:1051800083E791E00E94CC0A8091FD019091FE019D
:10519000A091FF01B09100026C017D0112E3C10EEC
:1051A000D11CE11CF11CC701B601A30192010E94B0
:1051B000EB2C44275527A8EEB3E00E94E02CA70172
:1051C0009601261B370B480B590BCA01B90124E67F
:1051D00030E040E050E00E94EB2CC9010E94870CB7
:1051E00085ED91E00E94B50B61E080E00E94410BEB
:1051F0008091110290911202A0911302B0911402B9
:10520000BC01CD016C507E4F8F4F9F4FA301920187
:105210000E94EB2CC9010E94870C81ED91E00E9455
:10522000B50B8091C1014091C001849FA001112460
:10523000952F990F990BA0900902B0900A02C09087
:105240000B02D0900C02E0900D02F0900E02009143
:105250000F02109110029A01492F592F692F792FAF
:10526000892F0E94AB2FA12CB12CFFE0CF2ED12C87
:10527000E12CF12C00E010E00E943130C901DA018C
:105280008093F9019093FA01A093FB01B093FC0184
:10529000BC01CD016C507E4F8F4F9F4FA3019201F7
:1052A0000E94EB2CA5CC60E080E00E94410B80ECDA
:1052B00091E00E94B50B61E080E00E94410B8FEA13
:1052C00091E044C20E94920F0E946C0F8FE00E94F6
:1052D0001E179093F8018093F70160E080E00E9430
:1052E000410B8AEA91E00E94B50B46E060E084E061
:1052F0000E9432156091AC017091AD01CB01A0E02C
:10530000B0E0BC01CD016B5F7F4F8F4F9F4FA3017A
:1053100092010E94EB2CC9010E94870C83E791E067
:105320000E94CC0AC090AC01D090AD01E12CF12CD0
:1053300035E0C30ED11CE11CF11CC701B601A3016D
:1053400092010E94EB2CA8EEB3E00E94E02C9701A2
:105350008601061B170B280B390BC901B8012AE07F
:1053600030E040E050E00E94EB2C2A30310520F480
:1053700080E891E00E94CC0AC090AC01D090AD01D1
:10538000E12CF12C15E0C10ED11CE11CF11CC70170
:10539000B601A30192010E94EB2CA8EEB3E00E949B
:1053A000E02CA7019601261B370B480B590BCA01AD
:1053B000B9012AE030E040E050E00E94EB2CC90146
:1053C0000E94870C60E089E00E94410B84E891E034
:1053D0000E94CC0A6091AA017091AB01CB01770FBA
:1053E000AA0BBB0BBC01CD016B5F7F4F8F4F9F4F53
:1053F000A30192010E94EB2CC9010E94870C83E754
:1054000091E00E94CC0AC090AA01D090AB010D2C73
:10541000000CEE08FF0835E0C30ED11CE11CF11CA6
:10542000C701B601A30192010E94EB2C4427552726
:10543000A8EEB3E00E94E02C97018601061B170B33
:10544000280B390BC901B8012AE030E040E050E0F8
:105450000E94EB2C2A30310520F480E891E00E9474
:10546000CC0AC090AA01D090AB010D2C000CEE0824
:10547000FF0815E0C10ED11CE11CF11CC701B601EB
:10548000A30192010E94EB2C44275527A8EEB3E01C
:105490000E94E02CA7019601261B370B480B590BE5
:1054A000CA01B9012AE030E040E050E00E94EB2C54
:1054B000C9010E94870C87E891E037C12091D00193
:1054C0003091D1014091D2015091D3016091D4012A
:1054D0007091D5018091D6019091D701A090AE0135
:1054E000B090AF01C090B001D090B101E090B20196
:1054F000F090B3010091B4011091B5010E94C53044
:10550000192F2093090230930A0240930B02509303
:105510000C0260930D0270930E0280930F02909321
:1055200010029989AA899A9FF00111249F2F990F3F
:10553000990B59016A017B01082F9F01492F592FAF
:10554000692F792F892F0E94AB2FA12CB12CEFE06E
:10555000CE2ED12CE12CF12C00E010E00E94313055
:10556000B901CA012093F9017093FA014093FB013C
:105570009093FC012091A7014091A8015091A901AD
:10558000420F511DEAE0E49F9001E59F300D112488
:105590006901E12CF12C24E630E040E050E00E946B
:1055A000EB2CC701B601621B730B840B950B9B019F
:1055B000AC016093F3017093F4018093F501909333
:1055C000F601E091CC01F091CD01A0E1B7E20E949B
:1055D000E02C9F0140E050E00E94EB2C2093EF0173
:1055E0003093F0014093F1015093F20160E080E0CC
:1055F0000E94410B82EA91E00E94B50B44E060E01A
:1056000087E00E943215C090F301D090F401E09041
:10561000F501F090F601EFEF21E030E040E050E0DE
:10562000AAE0B0E00E94E02C9B01AC01E150C1F780
:10563000A5E0B0E00E94E02C6C0D7D1D8E1D9F1D2D
:105640002AE030E040E050E00E94EB2CC9010E94CB
:10565000870C83E791E00E94CC0A8090F301909040
:10566000F401A090F501B090F601EFEF21E030E0F9
:1056700040E050E0AAE0B0E00E94E02C9B01AC01C9
:10568000E150C1F7A5E0B0E00E94E02C6B017C0185
:10569000C80CD91CEA1CFB1CEFEF21E030E040E015
:1056A00050E0AAE0B0E00E94E02C9B01AC01E15088
:1056B000C1F7A5E0B0E00E94E02C680D791D8A1DBD
:1056C0009B1D2AE030E040E050E00E94EB2C442794
:1056D0005527AAE0B0E00E94E02C97018601061B46
:1056E000170B280B390BD901C8010E94870C89E8D8
:1056F00091E00E94CC0A61E080E00E94410B8AE9BF
:1057000091E00E94B50B44E061E087E00E94321511
:105710006091EF017091F0018091F1019091F2019F
:105720004AE00E946D0B8BE891E00E94CC0A4FC0CA
:1057300060E084E00E94410B8DE891E00E94B50B8F
:1057400061E089E00E94410B85E891E00E94B50B81
:105750003EC060E080E00E94410B84E791E00E943F
:10576000B50B61E080E00E94410B8091A501909112
:10577000A601A0E0B0E02AE0B695A7959795879599
:105780002A95D1F7082F2091A5013091A601232B4E
:1057900029F0892B8A2B8B2B09F401E010E01017DC
:1057A00029F08FEF0E94390C1F5FF9CF00E080E1F4
:1057B000E82EF12CE11AF108802F90E08E159F055C
:1057C00034F488E791E00E94CC0A0F5FF5CF0E9485
:1057D000751760932B0270932C0280932D02909387
:1057E0002E0280912F02811124C08DE00E94891623
:1057F000182F80912A021817E1F010932A0260E016
:1058000089E00E94410B112319F08EE891E002C05B
:1058100088E791E00E94CC0A61E089E00E94410B98
:10582000112319F08EE891E002C088E791E00E9410
:10583000CC0A80E090E0892B11F40C94671C0E9444
:1058400000000C94671C1093C3020C940F1C109260
:10585000AD021092AC0288EE93E0A0E0B0E080933D
:10586000AE029093AF02A093B002B093B10289E56B
:1058700091E09093AB028093AA0260E086E00E94E0
:10588000E216EBE0F4E0E491E093D702E7EFF3E017
:10589000E491F0E0EE0FFF1FE951FC4F85919491E8
:1058A0009093D9028093D8021092E2021092E402FF
:1058B0001092E302E2EEF2E0129282E0EA3DF80793
:1058C000D9F787ED92E09093CA028093C9021092B3
:1058D000C7021092C8021092C30289E08093C402EA
:1058E00081E08093C5028093C6021092D602109286
:1058F000D5021092B9021092B8028BE691E0909313
:10590000B7028093B6021092BF0287E28093BA0278
:1059100080E18093C00282E08093C1021092C202B3
:105920000895DC01CB01FC01F999FECF06C0F2BD60
:10593000E1BDF89A319600B40D9241505040B8F74D
:105940000895F999FECF92BD81BDF89A992780B547
:105950000895DC01CB0103C02D910E94B42C41506D
:105960005040D0F70895262FF999FECF1FBA92BD67
:1059700081BD20BD0FB6F894FA9AF99A0FBE019630
:105980000895052E97FB1EF400940E94D82C57FD15
:1059900007D00E94EB2C07FC03D04EF40C94D82CBB
:1059A00050954095309521953F4F4F4F5F4F08954B
:1059B00090958095709561957F4F8F4F9F4F08957B
:1059C0000E940D2DA59F900DB49F900DA49F800D5A
:1059D000911D11240895A1E21A2EAA1BBB1BFD01E3
:1059E0000DC0AA1FBB1FEE1FFF1FA217B307E407BE
:1059F000F50720F0A21BB30BE40BF50B661F771F16
:105A0000881F991F1A9469F76095709580959095F5
:105A10009B01AC01BD01CF010895A29FB001B39FCE
:105A2000C001A39F700D811D1124911DB29F700DA7
:105A3000811D1124911D08955058BB27AA270E944B
:105A4000342D0C94AE2E0E94A02E38F00E94A72E6A
:105A500020F039F49F3F19F426F40C949D2E0EF497
:105A6000E095E7FB0C94972EE92F0E94BF2E58F388
:105A7000BA17620773078407950720F079F4A6F533
:105A80000C94E12E0EF4E0950B2EBA2FA02D0B01F5
:105A9000B90190010C01CA01A0011124FF27591B73
:105AA00099F0593F50F4503E68F11A16F040A22F79
:105AB000232F342F4427585FF3CF469537952795EA
:105AC000A795F0405395C9F77EF41F16BA0B620BE9
:105AD000730B840BBAF09150A1F0FF0FBB1F661F30
